{
  "_format": "hh-sol-artifact-1",
  "contractName": "DataPublisher",
  "sourceName": "contracts/DataPublisher.sol",
  "abi": [
    {
      "anonymous": false,
      "inputs": [
        {
          "indexed": true,
          "internalType": "uint256",
          "name": "id",
          "type": "uint256"
        },
        {
          "indexed": true,
          "internalType": "address",
          "name": "publisher",
          "type": "address"
        },
        {
          "indexed": false,
          "internalType": "string",
          "name": "dataHash",
          "type": "string"
        },
        {
          "indexed": false,
          "internalType": "string",
          "name": "description",
          "type": "string"
        }
      ],
      "name": "DataPublished",
      "type": "event"
    },
    {
      "anonymous": false,
      "inputs": [
        {
          "indexed": true,
          "internalType": "uint256",
          "name": "id",
          "type": "uint256"
        }
      ],
      "name": "DataRemoved",
      "type": "event"
    },
    {
      "anonymous": false,
      "inputs": [
        {
          "indexed": true,
          "internalType": "uint256",
          "name": "id",
          "type": "uint256"
        },
        {
          "indexed": false,
          "internalType": "string",
          "name": "newDescription",
          "type": "string"
        }
      ],
      "name": "DataUpdated",
      "type": "event"
    },
    {
      "inputs": [],
      "name": "getDataCount",
      "outputs": [
        {
          "internalType": "uint256",
          "name": "",
          "type": "uint256"
        }
      ],
      "stateMutability": "view",
      "type": "function"
    },
    {
      "inputs": [
        {
          "internalType": "uint256",
          "name": "dataId",
          "type": "uint256"
        }
      ],
      "name": "getDataEntry",
      "outputs": [
        {
          "components": [
            {
              "internalType": "uint256",
              "name": "id",
              "type": "uint256"
            },
            {
              "internalType": "address",
              "name": "publisher",
              "type": "address"
            },
            {
              "internalType": "string",
              "name": "dataHash",
              "type": "string"
            },
            {
              "internalType": "string",
              "name": "description",
              "type": "string"
            },
            {
              "internalType": "uint256",
              "name": "timestamp",
              "type": "uint256"
            },
            {
              "internalType": "bool",
              "name": "isAvailable",
              "type": "bool"
            }
          ],
          "internalType": "struct DataPublisher.DataEntry",
          "name": "",
          "type": "tuple"
        }
      ],
      "stateMutability": "view",
      "type": "function"
    },
    {
      "inputs": [],
      "name": "getMyPublishedData",
      "outputs": [
        {
          "internalType": "uint256[]",
          "name": "",
          "type": "uint256[]"
        }
      ],
      "stateMutability": "view",
      "type": "function"
    },
    {
      "inputs": [
        {
          "internalType": "string",
          "name": "dataHash",
          "type": "string"
        },
        {
          "internalType": "string",
          "name": "description",
          "type": "string"
        }
      ],
      "name": "publishData",
      "outputs": [],
      "stateMutability": "nonpayable",
      "type": "function"
    },
    {
      "inputs": [
        {
          "internalType": "uint256",
          "name": "dataId",
          "type": "uint256"
        }
      ],
      "name": "removeData",
      "outputs": [],
      "stateMutability": "nonpayable",
      "type": "function"
    },
    {
      "inputs": [],
      "name": "totalPublishedCount",
      "outputs": [
        {
          "internalType": "uint256",
          "name": "",
          "type": "uint256"
        }
      ],
      "stateMutability": "view",
      "type": "function"
    },
    {
      "inputs": [
        {
          "internalType": "uint256",
          "name": "dataId",
          "type": "uint256"
        },
        {
          "internalType": "string",
          "name": "newDescription",
          "type": "string"
        }
      ],
      "name": "updateDescription",
      "outputs": [],
      "stateMutability": "nonpayable",
      "type": "function"
    }
  ],
  "bytecode": "0x60806040526001600055348015601457600080fd5b506115c7806100246000396000f3fe608060405234801561001057600080fd5b506004361061007d5760003560e01c8063a94840bb1161005b578063a94840bb146100da578063c91acda1146100f6578063d3d3521e14610112578063f75d8ada146101305761007d565b806314dee4b3146100825780637355a4241461009e5780639e9f98b1146100bc575b600080fd5b61009c60048036038101906100979190610bb1565b610160565b005b6100a661030d565b6040516100b39190610c1c565b60405180910390f35b6100c4610323565b6040516100d19190610cf5565b60405180910390f35b6100f460048036038101906100ef9190610d17565b6103b8565b005b610110600480360381019061010b9190610d44565b610520565b005b61011a610784565b6040516101279190610c1c565b60405180910390f35b61014a60048036038101906101459190610d17565b61079a565b6040516101579190610f27565b60405180910390f35b813373ffffffffffffffffffffffffffffffffffffffff166001600083815260200190815260200160002060010160009054906101000a900473ffffffffffffffffffffffffffffffffffffffff1673ffffffffffffffffffffffffffffffffffffffff1614610205576040517f08c379a00000000000000000000000000000000000000000000000000000000081526004016101fc90610fa6565b60405180910390fd5b6001600084815260200190815260200160002060050160009054906101000a900460ff16610268576040517f08c379a000000000000000000000000000000000000000000000000000000000815260040161025f90611012565b60405180910390fd5b60008251116102ac576040517f08c379a00000000000000000000000000000000000000000000000000000000081526004016102a39061107e565b60405180910390fd5b816001600085815260200190815260200160002060030190816102cf91906112aa565b50827f32ff2de261828e51bc5b40e629ae81310bf58f920815860c9dc61c7ccf785fa18360405161030091906113b5565b60405180910390a2505050565b6000600160005461031e9190611406565b905090565b6060600260003373ffffffffffffffffffffffffffffffffffffffff1673ffffffffffffffffffffffffffffffffffffffff1681526020019081526020016000208054806020026020016040519081016040528092919081815260200182805480156103ae57602002820191906000526020600020905b81548152602001906001019080831161039a575b5050505050905090565b803373ffffffffffffffffffffffffffffffffffffffff166001600083815260200190815260200160002060010160009054906101000a900473ffffffffffffffffffffffffffffffffffffffff1673ffffffffffffffffffffffffffffffffffffffff161461045d576040517f08c379a000000000000000000000000000000000000000000000000000000000815260040161045490610fa6565b60405180910390fd5b6001600083815260200190815260200160002060050160009054906101000a900460ff166104c0576040517f08c379a00000000000000000000000000000000000000000000000000000000081526004016104b790611486565b60405180910390fd5b60006001600084815260200190815260200160002060050160006101000a81548160ff021916908315150217905550817f83307ab8fa21e870864d984fedbb6fefc97e7d975f22ebfc416ee4520f1b03ff60405160405180910390a25050565b6000825111610564576040517f08c379a000000000000000000000000000000000000000000000000000000000815260040161055b906114f2565b60405180910390fd5b60008151116105a8576040517f08c379a000000000000000000000000000000000000000000000000000000000815260040161059f9061107e565b60405180910390fd5b6000805490506040518060c001604052808281526020013373ffffffffffffffffffffffffffffffffffffffff16815260200184815260200183815260200142815260200160011515815250600160008381526020019081526020016000206000820151816000015560208201518160010160006101000a81548173ffffffffffffffffffffffffffffffffffffffff021916908373ffffffffffffffffffffffffffffffffffffffff160217905550604082015181600201908161066d91906112aa565b50606082015181600301908161068391906112aa565b506080820151816004015560a08201518160050160006101000a81548160ff021916908315150217905550905050600260003373ffffffffffffffffffffffffffffffffffffffff1673ffffffffffffffffffffffffffffffffffffffff1681526020019081526020016000208190806001815401808255809150506001900390600052602060002001600090919091909150553373ffffffffffffffffffffffffffffffffffffffff16817fce27359cd52b61905f657ee91ec5539d06619a5678505f654430425a6b4cccd58585604051610760929190611512565b60405180910390a360008081548092919061077a90611549565b9190505550505050565b600060016000546107959190611406565b905090565b6107a26109d3565b6001600083815260200190815260200160002060050160009054906101000a900460ff16610805576040517f08c379a00000000000000000000000000000000000000000000000000000000081526004016107fc90611012565b60405180910390fd5b600160008381526020019081526020016000206040518060c0016040529081600082015481526020016001820160009054906101000a900473ffffffffffffffffffffffffffffffffffffffff1673ffffffffffffffffffffffffffffffffffffffff1673ffffffffffffffffffffffffffffffffffffffff168152602001600282018054610893906110cd565b80601f01602080910402602001604051908101604052809291908181526020018280546108bf906110cd565b801561090c5780601f106108e15761010080835404028352916020019161090c565b820191906000526020600020905b8154815290600101906020018083116108ef57829003601f168201915b50505050508152602001600382018054610925906110cd565b80601f0160208091040260200160405190810160405280929190818152602001828054610951906110cd565b801561099e5780601f106109735761010080835404028352916020019161099e565b820191906000526020600020905b81548152906001019060200180831161098157829003601f168201915b50505050508152602001600482015481526020016005820160009054906101000a900460ff1615151515815250509050919050565b6040518060c0016040528060008152602001600073ffffffffffffffffffffffffffffffffffffffff1681526020016060815260200160608152602001600081526020016000151581525090565b6000604051905090565b600080fd5b600080fd5b6000819050919050565b610a4881610a35565b8114610a5357600080fd5b50565b600081359050610a6581610a3f565b92915050565b600080fd5b600080fd5b6000601f19601f8301169050919050565b7f4e487b7100000000000000000000000000000000000000000000000000000000600052604160045260246000fd5b610abe82610a75565b810181811067ffffffffffffffff82111715610add57610adc610a86565b5b80604052505050565b6000610af0610a21565b9050610afc8282610ab5565b919050565b600067ffffffffffffffff821115610b1c57610b1b610a86565b5b610b2582610a75565b9050602081019050919050565b82818337600083830152505050565b6000610b54610b4f84610b01565b610ae6565b905082815260208101848484011115610b7057610b6f610a70565b5b610b7b848285610b32565b509392505050565b600082601f830112610b9857610b97610a6b565b5b8135610ba8848260208601610b41565b91505092915050565b60008060408385031215610bc857610bc7610a2b565b5b6000610bd685828601610a56565b925050602083013567ffffffffffffffff811115610bf757610bf6610a30565b5b610c0385828601610b83565b9150509250929050565b610c1681610a35565b82525050565b6000602082019050610c316000830184610c0d565b92915050565b600081519050919050565b600082825260208201905092915050565b6000819050602082019050919050565b610c6c81610a35565b82525050565b6000610c7e8383610c63565b60208301905092915050565b6000602082019050919050565b6000610ca282610c37565b610cac8185610c42565b9350610cb783610c53565b8060005b83811015610ce8578151610ccf8882610c72565b9750610cda83610c8a565b925050600181019050610cbb565b5085935050505092915050565b60006020820190508181036000830152610d0f8184610c97565b905092915050565b600060208284031215610d2d57610d2c610a2b565b5b6000610d3b84828501610a56565b91505092915050565b60008060408385031215610d5b57610d5a610a2b565b5b600083013567ffffffffffffffff811115610d7957610d78610a30565b5b610d8585828601610b83565b925050602083013567ffffffffffffffff811115610da657610da5610a30565b5b610db285828601610b83565b9150509250929050565b600073ffffffffffffffffffffffffffffffffffffffff82169050919050565b6000610de782610dbc565b9050919050565b610df781610ddc565b82525050565b600081519050919050565b600082825260208201905092915050565b60005b83811015610e37578082015181840152602081019050610e1c565b60008484015250505050565b6000610e4e82610dfd565b610e588185610e08565b9350610e68818560208601610e19565b610e7181610a75565b840191505092915050565b60008115159050919050565b610e9181610e7c565b82525050565b600060c083016000830151610eaf6000860182610c63565b506020830151610ec26020860182610dee565b5060408301518482036040860152610eda8282610e43565b91505060608301518482036060860152610ef48282610e43565b9150506080830151610f096080860182610c63565b5060a0830151610f1c60a0860182610e88565b508091505092915050565b60006020820190508181036000830152610f418184610e97565b905092915050565b600082825260208201905092915050565b7f4e6f7420617574686f72697a6564000000000000000000000000000000000000600082015250565b6000610f90600e83610f49565b9150610f9b82610f5a565b602082019050919050565b60006020820190508181036000830152610fbf81610f83565b9050919050565b7f44617461206e6f7420617661696c61626c650000000000000000000000000000600082015250565b6000610ffc601283610f49565b915061100782610fc6565b602082019050919050565b6000602082019050818103600083015261102b81610fef565b9050919050565b7f4465736372697074696f6e2063616e6e6f7420626520656d7074790000000000600082015250565b6000611068601b83610f49565b915061107382611032565b602082019050919050565b600060208201905081810360008301526110978161105b565b9050919050565b7f4e487b7100000000000000000000000000000000000000000000000000000000600052602260045260246000fd5b600060028204905060018216806110e557607f821691505b6020821081036110f8576110f761109e565b5b50919050565b60008190508160005260206000209050919050565b60006020601f8301049050919050565b600082821b905092915050565b6000600883026111607fffffffffffffffffffffffffffffffffffffffffffffffffffffffffffffffff82611123565b61116a8683611123565b95508019841693508086168417925050509392505050565b6000819050919050565b60006111a76111a261119d84610a35565b611182565b610a35565b9050919050565b6000819050919050565b6111c18361118c565b6111d56111cd826111ae565b848454611130565b825550505050565b600090565b6111ea6111dd565b6111f58184846111b8565b505050565b5b818110156112195761120e6000826111e2565b6001810190506111fb565b5050565b601f82111561125e5761122f816110fe565b61123884611113565b81016020851015611247578190505b61125b61125385611113565b8301826111fa565b50505b505050565b600082821c905092915050565b600061128160001984600802611263565b1980831691505092915050565b600061129a8383611270565b9150826002028217905092915050565b6112b382610dfd565b67ffffffffffffffff8111156112cc576112cb610a86565b5b6112d682546110cd565b6112e182828561121d565b600060209050601f8311600181146113145760008415611302578287015190505b61130c858261128e565b865550611374565b601f198416611322866110fe565b60005b8281101561134a57848901518255600182019150602085019450602081019050611325565b868310156113675784890151611363601f891682611270565b8355505b6001600288020188555050505b505050505050565b600061138782610dfd565b6113918185610f49565b93506113a1818560208601610e19565b6113aa81610a75565b840191505092915050565b600060208201905081810360008301526113cf818461137c565b905092915050565b7f4e487b7100000000000000000000000000000000000000000000000000000000600052601160045260246000fd5b600061141182610a35565b915061141c83610a35565b9250828203905081811115611434576114336113d7565b5b92915050565b7f4461746120616c72656164792072656d6f766564000000000000000000000000600082015250565b6000611470601483610f49565b915061147b8261143a565b602082019050919050565b6000602082019050818103600083015261149f81611463565b9050919050565b7f4461746120686173682063616e6e6f7420626520656d70747900000000000000600082015250565b60006114dc601983610f49565b91506114e7826114a6565b602082019050919050565b6000602082019050818103600083015261150b816114cf565b9050919050565b6000604082019050818103600083015261152c818561137c565b90508181036020830152611540818461137c565b90509392505050565b600061155482610a35565b91507fffffffffffffffffffffffffffffffffffffffffffffffffffffffffffffffff8203611586576115856113d7565b5b60018201905091905056fea2646970667358221220aea43402851d3982f501dd55340ec224bb86c0c61ce5ccc531d7680055a68c8064736f6c634300081c0033",
  "linkReferences": {},
  "deployedLinkReferences": {}
}