{
  "_format": "hh-sol-artifact-1",
  "contractName": "DataPublisher",
  "sourceName": "contracts/DataPublisher.sol",
  "abi": [
    {
      "anonymous": false,
      "inputs": [
        {
          "indexed": true,
          "internalType": "uint256",
          "name": "id",
          "type": "uint256"
        },
        {
          "indexed": true,
          "internalType": "address",
          "name": "publisher",
          "type": "address"
        },
        {
          "indexed": false,
          "internalType": "string",
          "name": "dataHash",
          "type": "string"
        },
        {
          "indexed": false,
          "internalType": "string",
          "name": "description",
          "type": "string"
        }
      ],
      "name": "DataPublished",
      "type": "event"
    },
    {
      "anonymous": false,
      "inputs": [
        {
          "indexed": true,
          "internalType": "uint256",
          "name": "id",
          "type": "uint256"
        }
      ],
      "name": "DataRemoved",
      "type": "event"
    },
    {
      "anonymous": false,
      "inputs": [
        {
          "indexed": true,
          "internalType": "uint256",
          "name": "id",
          "type": "uint256"
        },
        {
          "indexed": false,
          "internalType": "string",
          "name": "newDescription",
          "type": "string"
        }
      ],
      "name": "DataUpdated",
      "type": "event"
    },
    {
      "inputs": [],
      "name": "getDataCount",
      "outputs": [
        {
          "internalType": "uint256",
          "name": "",
          "type": "uint256"
        }
      ],
      "stateMutability": "view",
      "type": "function"
    },
    {
      "inputs": [
        {
          "internalType": "uint256",
          "name": "dataId",
          "type": "uint256"
        }
      ],
      "name": "getDataEntry",
      "outputs": [
        {
          "components": [
            {
              "internalType": "uint256",
              "name": "id",
              "type": "uint256"
            },
            {
              "internalType": "address",
              "name": "publisher",
              "type": "address"
            },
            {
              "internalType": "string",
              "name": "dataHash",
              "type": "string"
            },
            {
              "internalType": "string",
              "name": "description",
              "type": "string"
            },
            {
              "internalType": "uint256",
              "name": "timestamp",
              "type": "uint256"
            },
            {
              "internalType": "bool",
              "name": "isAvailable",
              "type": "bool"
            }
          ],
          "internalType": "struct DataPublisher.DataEntry",
          "name": "",
          "type": "tuple"
        }
      ],
      "stateMutability": "view",
      "type": "function"
    },
    {
      "inputs": [],
      "name": "getMyPublishedData",
      "outputs": [
        {
          "internalType": "uint256[]",
          "name": "",
          "type": "uint256[]"
        }
      ],
      "stateMutability": "view",
      "type": "function"
    },
    {
      "inputs": [
        {
          "internalType": "string",
          "name": "dataHash",
          "type": "string"
        },
        {
          "internalType": "string",
          "name": "description",
          "type": "string"
        }
      ],
      "name": "publishData",
      "outputs": [],
      "stateMutability": "nonpayable",
      "type": "function"
    },
    {
      "inputs": [
        {
          "internalType": "uint256",
          "name": "dataId",
          "type": "uint256"
        }
      ],
      "name": "removeData",
      "outputs": [],
      "stateMutability": "nonpayable",
      "type": "function"
    },
    {
      "inputs": [],
      "name": "totalPublishedCount",
      "outputs": [
        {
          "internalType": "uint256",
          "name": "",
          "type": "uint256"
        }
      ],
      "stateMutability": "view",
      "type": "function"
    },
    {
      "inputs": [
        {
          "internalType": "uint256",
          "name": "dataId",
          "type": "uint256"
        },
        {
          "internalType": "string",
          "name": "newDescription",
          "type": "string"
        }
      ],
      "name": "updateDescription",
      "outputs": [],
      "stateMutability": "nonpayable",
      "type": "function"
    }
  ],
  "bytecode": "0x60806040526001600055348015601457600080fd5b506115ba806100246000396000f3fe608060405234801561001057600080fd5b506004361061007d5760003560e01c8063a94840bb1161005b578063a94840bb146100da578063c91acda1146100f6578063d3d3521e14610112578063f75d8ada146101305761007d565b806314dee4b3146100825780637355a4241461009e5780639e9f98b1146100bc575b600080fd5b61009c60048036038101906100979190610ba4565b610160565b005b6100a661030d565b6040516100b39190610c0f565b60405180910390f35b6100c4610316565b6040516100d19190610ce8565b60405180910390f35b6100f460048036038101906100ef9190610d0a565b6103ab565b005b610110600480360381019061010b9190610d37565b610513565b005b61011a610777565b6040516101279190610c0f565b60405180910390f35b61014a60048036038101906101459190610d0a565b61078d565b6040516101579190610f1a565b60405180910390f35b813373ffffffffffffffffffffffffffffffffffffffff166001600083815260200190815260200160002060010160009054906101000a900473ffffffffffffffffffffffffffffffffffffffff1673ffffffffffffffffffffffffffffffffffffffff1614610205576040517f08c379a00000000000000000000000000000000000000000000000000000000081526004016101fc90610f99565b60405180910390fd5b6001600084815260200190815260200160002060050160009054906101000a900460ff16610268576040517f08c379a000000000000000000000000000000000000000000000000000000000815260040161025f90611005565b60405180910390fd5b60008251116102ac576040517f08c379a00000000000000000000000000000000000000000000000000000000081526004016102a390611071565b60405180910390fd5b816001600085815260200190815260200160002060030190816102cf919061129d565b50827f32ff2de261828e51bc5b40e629ae81310bf58f920815860c9dc61c7ccf785fa18360405161030091906113a8565b60405180910390a2505050565b60006001905090565b6060600260003373ffffffffffffffffffffffffffffffffffffffff1673ffffffffffffffffffffffffffffffffffffffff1681526020019081526020016000208054806020026020016040519081016040528092919081815260200182805480156103a157602002820191906000526020600020905b81548152602001906001019080831161038d575b5050505050905090565b803373ffffffffffffffffffffffffffffffffffffffff166001600083815260200190815260200160002060010160009054906101000a900473ffffffffffffffffffffffffffffffffffffffff1673ffffffffffffffffffffffffffffffffffffffff1614610450576040517f08c379a000000000000000000000000000000000000000000000000000000000815260040161044790610f99565b60405180910390fd5b6001600083815260200190815260200160002060050160009054906101000a900460ff166104b3576040517f08c379a00000000000000000000000000000000000000000000000000000000081526004016104aa90611416565b60405180910390fd5b60006001600084815260200190815260200160002060050160006101000a81548160ff021916908315150217905550817f83307ab8fa21e870864d984fedbb6fefc97e7d975f22ebfc416ee4520f1b03ff60405160405180910390a25050565b6000825111610557576040517f08c379a000000000000000000000000000000000000000000000000000000000815260040161054e90611482565b60405180910390fd5b600081511161059b576040517f08c379a000000000000000000000000000000000000000000000000000000000815260040161059290611071565b60405180910390fd5b6000805490506040518060c001604052808281526020013373ffffffffffffffffffffffffffffffffffffffff16815260200184815260200183815260200142815260200160011515815250600160008381526020019081526020016000206000820151816000015560208201518160010160006101000a81548173ffffffffffffffffffffffffffffffffffffffff021916908373ffffffffffffffffffffffffffffffffffffffff1602179055506040820151816002019081610660919061129d565b506060820151816003019081610676919061129d565b506080820151816004015560a08201518160050160006101000a81548160ff021916908315150217905550905050600260003373ffffffffffffffffffffffffffffffffffffffff1673ffffffffffffffffffffffffffffffffffffffff1681526020019081526020016000208190806001815401808255809150506001900390600052602060002001600090919091909150553373ffffffffffffffffffffffffffffffffffffffff16817fce27359cd52b61905f657ee91ec5539d06619a5678505f654430425a6b4cccd585856040516107539291906114a2565b60405180910390a360008081548092919061076d90611508565b9190505550505050565b600060016000546107889190611550565b905090565b6107956109c6565b6001600083815260200190815260200160002060050160009054906101000a900460ff166107f8576040517f08c379a00000000000000000000000000000000000000000000000000000000081526004016107ef90611005565b60405180910390fd5b600160008381526020019081526020016000206040518060c0016040529081600082015481526020016001820160009054906101000a900473ffffffffffffffffffffffffffffffffffffffff1673ffffffffffffffffffffffffffffffffffffffff1673ffffffffffffffffffffffffffffffffffffffff168152602001600282018054610886906110c0565b80601f01602080910402602001604051908101604052809291908181526020018280546108b2906110c0565b80156108ff5780601f106108d4576101008083540402835291602001916108ff565b820191906000526020600020905b8154815290600101906020018083116108e257829003601f168201915b50505050508152602001600382018054610918906110c0565b80601f0160208091040260200160405190810160405280929190818152602001828054610944906110c0565b80156109915780601f1061096657610100808354040283529160200191610991565b820191906000526020600020905b81548152906001019060200180831161097457829003601f168201915b50505050508152602001600482015481526020016005820160009054906101000a900460ff1615151515815250509050919050565b6040518060c0016040528060008152602001600073ffffffffffffffffffffffffffffffffffffffff1681526020016060815260200160608152602001600081526020016000151581525090565b6000604051905090565b600080fd5b600080fd5b6000819050919050565b610a3b81610a28565b8114610a4657600080fd5b50565b600081359050610a5881610a32565b92915050565b600080fd5b600080fd5b6000601f19601f8301169050919050565b7f4e487b7100000000000000000000000000000000000000000000000000000000600052604160045260246000fd5b610ab182610a68565b810181811067ffffffffffffffff82111715610ad057610acf610a79565b5b80604052505050565b6000610ae3610a14565b9050610aef8282610aa8565b919050565b600067ffffffffffffffff821115610b0f57610b0e610a79565b5b610b1882610a68565b9050602081019050919050565b82818337600083830152505050565b6000610b47610b4284610af4565b610ad9565b905082815260208101848484011115610b6357610b62610a63565b5b610b6e848285610b25565b509392505050565b600082601f830112610b8b57610b8a610a5e565b5b8135610b9b848260208601610b34565b91505092915050565b60008060408385031215610bbb57610bba610a1e565b5b6000610bc985828601610a49565b925050602083013567ffffffffffffffff811115610bea57610be9610a23565b5b610bf685828601610b76565b9150509250929050565b610c0981610a28565b82525050565b6000602082019050610c246000830184610c00565b92915050565b600081519050919050565b600082825260208201905092915050565b6000819050602082019050919050565b610c5f81610a28565b82525050565b6000610c718383610c56565b60208301905092915050565b6000602082019050919050565b6000610c9582610c2a565b610c9f8185610c35565b9350610caa83610c46565b8060005b83811015610cdb578151610cc28882610c65565b9750610ccd83610c7d565b925050600181019050610cae565b5085935050505092915050565b60006020820190508181036000830152610d028184610c8a565b905092915050565b600060208284031215610d2057610d1f610a1e565b5b6000610d2e84828501610a49565b91505092915050565b60008060408385031215610d4e57610d4d610a1e565b5b600083013567ffffffffffffffff811115610d6c57610d6b610a23565b5b610d7885828601610b76565b925050602083013567ffffffffffffffff811115610d9957610d98610a23565b5b610da585828601610b76565b9150509250929050565b600073ffffffffffffffffffffffffffffffffffffffff82169050919050565b6000610dda82610daf565b9050919050565b610dea81610dcf565b82525050565b600081519050919050565b600082825260208201905092915050565b60005b83811015610e2a578082015181840152602081019050610e0f565b60008484015250505050565b6000610e4182610df0565b610e4b8185610dfb565b9350610e5b818560208601610e0c565b610e6481610a68565b840191505092915050565b60008115159050919050565b610e8481610e6f565b82525050565b600060c083016000830151610ea26000860182610c56565b506020830151610eb56020860182610de1565b5060408301518482036040860152610ecd8282610e36565b91505060608301518482036060860152610ee78282610e36565b9150506080830151610efc6080860182610c56565b5060a0830151610f0f60a0860182610e7b565b508091505092915050565b60006020820190508181036000830152610f348184610e8a565b905092915050565b600082825260208201905092915050565b7f4e6f7420617574686f72697a6564000000000000000000000000000000000000600082015250565b6000610f83600e83610f3c565b9150610f8e82610f4d565b602082019050919050565b60006020820190508181036000830152610fb281610f76565b9050919050565b7f44617461206e6f7420617661696c61626c650000000000000000000000000000600082015250565b6000610fef601283610f3c565b9150610ffa82610fb9565b602082019050919050565b6000602082019050818103600083015261101e81610fe2565b9050919050565b7f4465736372697074696f6e2063616e6e6f7420626520656d7074790000000000600082015250565b600061105b601b83610f3c565b915061106682611025565b602082019050919050565b6000602082019050818103600083015261108a8161104e565b9050919050565b7f4e487b7100000000000000000000000000000000000000000000000000000000600052602260045260246000fd5b600060028204905060018216806110d857607f821691505b6020821081036110eb576110ea611091565b5b50919050565b60008190508160005260206000209050919050565b60006020601f8301049050919050565b600082821b905092915050565b6000600883026111537fffffffffffffffffffffffffffffffffffffffffffffffffffffffffffffffff82611116565b61115d8683611116565b95508019841693508086168417925050509392505050565b6000819050919050565b600061119a61119561119084610a28565b611175565b610a28565b9050919050565b6000819050919050565b6111b48361117f565b6111c86111c0826111a1565b848454611123565b825550505050565b600090565b6111dd6111d0565b6111e88184846111ab565b505050565b5b8181101561120c576112016000826111d5565b6001810190506111ee565b5050565b601f82111561125157611222816110f1565b61122b84611106565b8101602085101561123a578190505b61124e61124685611106565b8301826111ed565b50505b505050565b600082821c905092915050565b600061127460001984600802611256565b1980831691505092915050565b600061128d8383611263565b9150826002028217905092915050565b6112a682610df0565b67ffffffffffffffff8111156112bf576112be610a79565b5b6112c982546110c0565b6112d4828285611210565b600060209050601f83116001811461130757600084156112f5578287015190505b6112ff8582611281565b865550611367565b601f198416611315866110f1565b60005b8281101561133d57848901518255600182019150602085019450602081019050611318565b8683101561135a5784890151611356601f891682611263565b8355505b6001600288020188555050505b505050505050565b600061137a82610df0565b6113848185610f3c565b9350611394818560208601610e0c565b61139d81610a68565b840191505092915050565b600060208201905081810360008301526113c2818461136f565b905092915050565b7f4461746120616c72656164792072656d6f766564000000000000000000000000600082015250565b6000611400601483610f3c565b915061140b826113ca565b602082019050919050565b6000602082019050818103600083015261142f816113f3565b9050919050565b7f4461746120686173682063616e6e6f7420626520656d70747900000000000000600082015250565b600061146c601983610f3c565b915061147782611436565b602082019050919050565b6000602082019050818103600083015261149b8161145f565b9050919050565b600060408201905081810360008301526114bc818561136f565b905081810360208301526114d0818461136f565b90509392505050565b7f4e487b7100000000000000000000000000000000000000000000000000000000600052601160045260246000fd5b600061151382610a28565b91507fffffffffffffffffffffffffffffffffffffffffffffffffffffffffffffffff8203611545576115446114d9565b5b600182019050919050565b600061155b82610a28565b915061156683610a28565b925082820390508181111561157e5761157d6114d9565b5b9291505056fea264697066735822122044f7380344ec9e12a3cadbfed0f0dc37e23731a16efd9c280729cf406193c71c64736f6c634300081c0033",
  "linkReferences": {},
  "deployedLinkReferences": {}
}