{
  "_format": "hh-sol-artifact-1",
  "contractName": "DataPublisher",
  "sourceName": "contracts/DataPublisher.sol",
  "abi": [
    {
      "anonymous": false,
      "inputs": [
        {
          "indexed": true,
          "internalType": "uint256",
          "name": "id",
          "type": "uint256"
        },
        {
          "indexed": true,
          "internalType": "address",
          "name": "publisher",
          "type": "address"
        },
        {
          "indexed": false,
          "internalType": "string",
          "name": "dataHash",
          "type": "string"
        },
        {
          "indexed": false,
          "internalType": "string",
          "name": "description",
          "type": "string"
        }
      ],
      "name": "DataPublished",
      "type": "event"
    },
    {
      "anonymous": false,
      "inputs": [
        {
          "indexed": true,
          "internalType": "uint256",
          "name": "id",
          "type": "uint256"
        }
      ],
      "name": "DataRemoved",
      "type": "event"
    },
    {
      "anonymous": false,
      "inputs": [
        {
          "indexed": true,
          "internalType": "uint256",
          "name": "id",
          "type": "uint256"
        },
        {
          "indexed": false,
          "internalType": "string",
          "name": "newDescription",
          "type": "string"
        }
      ],
      "name": "DataUpdated",
      "type": "event"
    },
    {
      "inputs": [],
      "name": "getDataCount",
      "outputs": [
        {
          "internalType": "uint256",
          "name": "",
          "type": "uint256"
        }
      ],
      "stateMutability": "view",
      "type": "function"
    },
    {
      "inputs": [
        {
          "internalType": "uint256",
          "name": "dataId",
          "type": "uint256"
        }
      ],
      "name": "getDataEntry",
      "outputs": [
        {
          "components": [
            {
              "internalType": "uint256",
              "name": "id",
              "type": "uint256"
            },
            {
              "internalType": "address",
              "name": "publisher",
              "type": "address"
            },
            {
              "internalType": "string",
              "name": "dataHash",
              "type": "string"
            },
            {
              "internalType": "string",
              "name": "deviceId",
              "type": "string"
            },
            {
              "internalType": "string",
              "name": "description",
              "type": "string"
            },
            {
              "internalType": "uint256",
              "name": "timestamp",
              "type": "uint256"
            },
            {
              "internalType": "bool",
              "name": "isAvailable",
              "type": "bool"
            }
          ],
          "internalType": "struct DataPublisher.DataEntry",
          "name": "",
          "type": "tuple"
        }
      ],
      "stateMutability": "view",
      "type": "function"
    },
    {
      "inputs": [
        {
          "internalType": "uint256",
          "name": "dataId",
          "type": "uint256"
        }
      ],
      "name": "getDeviceIdByDataId",
      "outputs": [
        {
          "internalType": "string",
          "name": "",
          "type": "string"
        }
      ],
      "stateMutability": "view",
      "type": "function"
    },
    {
      "inputs": [],
      "name": "getMyPublishedData",
      "outputs": [
        {
          "internalType": "uint256[]",
          "name": "",
          "type": "uint256[]"
        }
      ],
      "stateMutability": "view",
      "type": "function"
    },
    {
      "inputs": [
        {
          "internalType": "string",
          "name": "dataHash",
          "type": "string"
        },
        {
          "internalType": "string",
          "name": "description",
          "type": "string"
        },
        {
          "internalType": "string",
          "name": "deviceId",
          "type": "string"
        }
      ],
      "name": "publishData",
      "outputs": [],
      "stateMutability": "nonpayable",
      "type": "function"
    },
    {
      "inputs": [
        {
          "internalType": "uint256",
          "name": "dataId",
          "type": "uint256"
        }
      ],
      "name": "removeData",
      "outputs": [],
      "stateMutability": "nonpayable",
      "type": "function"
    },
    {
      "inputs": [],
      "name": "totalPublishedCount",
      "outputs": [
        {
          "internalType": "uint256",
          "name": "",
          "type": "uint256"
        }
      ],
      "stateMutability": "view",
      "type": "function"
    },
    {
      "inputs": [
        {
          "internalType": "uint256",
          "name": "dataId",
          "type": "uint256"
        },
        {
          "internalType": "string",
          "name": "newDescription",
          "type": "string"
        }
      ],
      "name": "updateDescription",
      "outputs": [],
      "stateMutability": "nonpayable",
      "type": "function"
    }
  ],
  "bytecode": "0x60806040526001600055348015601457600080fd5b506118bc806100246000396000f3fe608060405234801561001057600080fd5b50600436106100885760003560e01c8063a94840bb1161005b578063a94840bb14610115578063aad4752514610131578063d3d3521e1461014d578063f75d8ada1461016b57610088565b806314dee4b31461008d5780637355a424146100a95780637f3e19bf146100c75780639e9f98b1146100f7575b600080fd5b6100a760048036038101906100a29190610df1565b61019b565b005b6100b1610348565b6040516100be9190610e5c565b60405180910390f35b6100e160048036038101906100dc9190610e77565b61035e565b6040516100ee9190610f23565b60405180910390f35b6100ff610469565b60405161010c9190611003565b60405180910390f35b61012f600480360381019061012a9190610e77565b6104fe565b005b61014b60048036038101906101469190611025565b610666565b005b61015561092b565b6040516101629190610e5c565b60405180910390f35b61018560048036038101906101809190610e77565b610941565b604051610192919061121c565b60405180910390f35b813373ffffffffffffffffffffffffffffffffffffffff166001600083815260200190815260200160002060010160009054906101000a900473ffffffffffffffffffffffffffffffffffffffff1673ffffffffffffffffffffffffffffffffffffffff1614610240576040517f08c379a00000000000000000000000000000000000000000000000000000000081526004016102379061128a565b60405180910390fd5b6001600084815260200190815260200160002060060160009054906101000a900460ff166102a3576040517f08c379a000000000000000000000000000000000000000000000000000000000815260040161029a906112f6565b60405180910390fd5b60008251116102e7576040517f08c379a00000000000000000000000000000000000000000000000000000000081526004016102de90611362565b60405180910390fd5b8160016000858152602001908152602001600020600401908161030a919061158e565b50827f32ff2de261828e51bc5b40e629ae81310bf58f920815860c9dc61c7ccf785fa18360405161033b9190610f23565b60405180910390a2505050565b60006001600054610359919061168f565b905090565b60606001600083815260200190815260200160002060060160009054906101000a900460ff166103c3576040517f08c379a00000000000000000000000000000000000000000000000000000000081526004016103ba906112f6565b60405180910390fd5b6001600083815260200190815260200160002060030180546103e4906113b1565b80601f0160208091040260200160405190810160405280929190818152602001828054610410906113b1565b801561045d5780601f106104325761010080835404028352916020019161045d565b820191906000526020600020905b81548152906001019060200180831161044057829003601f168201915b50505050509050919050565b6060600260003373ffffffffffffffffffffffffffffffffffffffff1673ffffffffffffffffffffffffffffffffffffffff1681526020019081526020016000208054806020026020016040519081016040528092919081815260200182805480156104f457602002820191906000526020600020905b8154815260200190600101908083116104e0575b5050505050905090565b803373ffffffffffffffffffffffffffffffffffffffff166001600083815260200190815260200160002060010160009054906101000a900473ffffffffffffffffffffffffffffffffffffffff1673ffffffffffffffffffffffffffffffffffffffff16146105a3576040517f08c379a000000000000000000000000000000000000000000000000000000000815260040161059a9061128a565b60405180910390fd5b6001600083815260200190815260200160002060060160009054906101000a900460ff16610606576040517f08c379a00000000000000000000000000000000000000000000000000000000081526004016105fd9061170f565b60405180910390fd5b60006001600084815260200190815260200160002060060160006101000a81548160ff021916908315150217905550817f83307ab8fa21e870864d984fedbb6fefc97e7d975f22ebfc416ee4520f1b03ff60405160405180910390a25050565b60008351116106aa576040517f08c379a00000000000000000000000000000000000000000000000000000000081526004016106a19061177b565b60405180910390fd5b60008251116106ee576040517f08c379a00000000000000000000000000000000000000000000000000000000081526004016106e590611362565b60405180910390fd5b6000815111610732576040517f08c379a0000000000000000000000000000000000000000000000000000000008152600401610729906117e7565b60405180910390fd5b6000805490506040518060e001604052808281526020013373ffffffffffffffffffffffffffffffffffffffff16815260200185815260200183815260200184815260200142815260200160011515815250600160008381526020019081526020016000206000820151816000015560208201518160010160006101000a81548173ffffffffffffffffffffffffffffffffffffffff021916908373ffffffffffffffffffffffffffffffffffffffff16021790555060408201518160020190816107fd919061158e565b506060820151816003019081610813919061158e565b506080820151816004019081610829919061158e565b5060a0820151816005015560c08201518160060160006101000a81548160ff021916908315150217905550905050600260003373ffffffffffffffffffffffffffffffffffffffff1673ffffffffffffffffffffffffffffffffffffffff1681526020019081526020016000208190806001815401808255809150506001900390600052602060002001600090919091909150553373ffffffffffffffffffffffffffffffffffffffff16817fce27359cd52b61905f657ee91ec5539d06619a5678505f654430425a6b4cccd58686604051610906929190611807565b60405180910390a36000808154809291906109209061183e565b919050555050505050565b6000600160005461093c919061168f565b905090565b610949610c0c565b6001600083815260200190815260200160002060060160009054906101000a900460ff166109ac576040517f08c379a00000000000000000000000000000000000000000000000000000000081526004016109a3906112f6565b60405180910390fd5b600160008381526020019081526020016000206040518060e0016040529081600082015481526020016001820160009054906101000a900473ffffffffffffffffffffffffffffffffffffffff1673ffffffffffffffffffffffffffffffffffffffff1673ffffffffffffffffffffffffffffffffffffffff168152602001600282018054610a3a906113b1565b80601f0160208091040260200160405190810160405280929190818152602001828054610a66906113b1565b8015610ab35780601f10610a8857610100808354040283529160200191610ab3565b820191906000526020600020905b815481529060010190602001808311610a9657829003601f168201915b50505050508152602001600382018054610acc906113b1565b80601f0160208091040260200160405190810160405280929190818152602001828054610af8906113b1565b8015610b455780601f10610b1a57610100808354040283529160200191610b45565b820191906000526020600020905b815481529060010190602001808311610b2857829003601f168201915b50505050508152602001600482018054610b5e906113b1565b80601f0160208091040260200160405190810160405280929190818152602001828054610b8a906113b1565b8015610bd75780601f10610bac57610100808354040283529160200191610bd7565b820191906000526020600020905b815481529060010190602001808311610bba57829003601f168201915b50505050508152602001600582015481526020016006820160009054906101000a900460ff1615151515815250509050919050565b6040518060e0016040528060008152602001600073ffffffffffffffffffffffffffffffffffffffff168152602001606081526020016060815260200160608152602001600081526020016000151581525090565b6000604051905090565b600080fd5b600080fd5b6000819050919050565b610c8881610c75565b8114610c9357600080fd5b50565b600081359050610ca581610c7f565b92915050565b600080fd5b600080fd5b6000601f19601f8301169050919050565b7f4e487b7100000000000000000000000000000000000000000000000000000000600052604160045260246000fd5b610cfe82610cb5565b810181811067ffffffffffffffff82111715610d1d57610d1c610cc6565b5b80604052505050565b6000610d30610c61565b9050610d3c8282610cf5565b919050565b600067ffffffffffffffff821115610d5c57610d5b610cc6565b5b610d6582610cb5565b9050602081019050919050565b82818337600083830152505050565b6000610d94610d8f84610d41565b610d26565b905082815260208101848484011115610db057610daf610cb0565b5b610dbb848285610d72565b509392505050565b600082601f830112610dd857610dd7610cab565b5b8135610de8848260208601610d81565b91505092915050565b60008060408385031215610e0857610e07610c6b565b5b6000610e1685828601610c96565b925050602083013567ffffffffffffffff811115610e3757610e36610c70565b5b610e4385828601610dc3565b9150509250929050565b610e5681610c75565b82525050565b6000602082019050610e716000830184610e4d565b92915050565b600060208284031215610e8d57610e8c610c6b565b5b6000610e9b84828501610c96565b91505092915050565b600081519050919050565b600082825260208201905092915050565b60005b83811015610ede578082015181840152602081019050610ec3565b60008484015250505050565b6000610ef582610ea4565b610eff8185610eaf565b9350610f0f818560208601610ec0565b610f1881610cb5565b840191505092915050565b60006020820190508181036000830152610f3d8184610eea565b905092915050565b600081519050919050565b600082825260208201905092915050565b6000819050602082019050919050565b610f7a81610c75565b82525050565b6000610f8c8383610f71565b60208301905092915050565b6000602082019050919050565b6000610fb082610f45565b610fba8185610f50565b9350610fc583610f61565b8060005b83811015610ff6578151610fdd8882610f80565b9750610fe883610f98565b925050600181019050610fc9565b5085935050505092915050565b6000602082019050818103600083015261101d8184610fa5565b905092915050565b60008060006060848603121561103e5761103d610c6b565b5b600084013567ffffffffffffffff81111561105c5761105b610c70565b5b61106886828701610dc3565b935050602084013567ffffffffffffffff81111561108957611088610c70565b5b61109586828701610dc3565b925050604084013567ffffffffffffffff8111156110b6576110b5610c70565b5b6110c286828701610dc3565b9150509250925092565b600073ffffffffffffffffffffffffffffffffffffffff82169050919050565b60006110f7826110cc565b9050919050565b611107816110ec565b82525050565b600082825260208201905092915050565b600061112982610ea4565b611133818561110d565b9350611143818560208601610ec0565b61114c81610cb5565b840191505092915050565b60008115159050919050565b61116c81611157565b82525050565b600060e08301600083015161118a6000860182610f71565b50602083015161119d60208601826110fe565b50604083015184820360408601526111b5828261111e565b915050606083015184820360608601526111cf828261111e565b915050608083015184820360808601526111e9828261111e565b91505060a08301516111fe60a0860182610f71565b5060c083015161121160c0860182611163565b508091505092915050565b600060208201905081810360008301526112368184611172565b905092915050565b7f4e6f7420617574686f72697a6564000000000000000000000000000000000000600082015250565b6000611274600e83610eaf565b915061127f8261123e565b602082019050919050565b600060208201905081810360008301526112a381611267565b9050919050565b7f44617461206e6f7420617661696c61626c650000000000000000000000000000600082015250565b60006112e0601283610eaf565b91506112eb826112aa565b602082019050919050565b6000602082019050818103600083015261130f816112d3565b9050919050565b7f4465736372697074696f6e2063616e6e6f7420626520656d7074790000000000600082015250565b600061134c601b83610eaf565b915061135782611316565b602082019050919050565b6000602082019050818103600083015261137b8161133f565b9050919050565b7f4e487b7100000000000000000000000000000000000000000000000000000000600052602260045260246000fd5b600060028204905060018216806113c957607f821691505b6020821081036113dc576113db611382565b5b50919050565b60008190508160005260206000209050919050565b60006020601f8301049050919050565b600082821b905092915050565b6000600883026114447fffffffffffffffffffffffffffffffffffffffffffffffffffffffffffffffff82611407565b61144e8683611407565b95508019841693508086168417925050509392505050565b6000819050919050565b600061148b61148661148184610c75565b611466565b610c75565b9050919050565b6000819050919050565b6114a583611470565b6114b96114b182611492565b848454611414565b825550505050565b600090565b6114ce6114c1565b6114d981848461149c565b505050565b5b818110156114fd576114f26000826114c6565b6001810190506114df565b5050565b601f82111561154257611513816113e2565b61151c846113f7565b8101602085101561152b578190505b61153f611537856113f7565b8301826114de565b50505b505050565b600082821c905092915050565b600061156560001984600802611547565b1980831691505092915050565b600061157e8383611554565b9150826002028217905092915050565b61159782610ea4565b67ffffffffffffffff8111156115b0576115af610cc6565b5b6115ba82546113b1565b6115c5828285611501565b600060209050601f8311600181146115f857600084156115e6578287015190505b6115f08582611572565b865550611658565b601f198416611606866113e2565b60005b8281101561162e57848901518255600182019150602085019450602081019050611609565b8683101561164b5784890151611647601f891682611554565b8355505b6001600288020188555050505b505050505050565b7f4e487b7100000000000000000000000000000000000000000000000000000000600052601160045260246000fd5b600061169a82610c75565b91506116a583610c75565b92508282039050818111156116bd576116bc611660565b5b92915050565b7f4461746120616c72656164792072656d6f766564000000000000000000000000600082015250565b60006116f9601483610eaf565b9150611704826116c3565b602082019050919050565b60006020820190508181036000830152611728816116ec565b9050919050565b7f4461746120686173682063616e6e6f7420626520656d70747900000000000000600082015250565b6000611765601983610eaf565b91506117708261172f565b602082019050919050565b6000602082019050818103600083015261179481611758565b9050919050565b7f4465766963652049442072657175697265640000000000000000000000000000600082015250565b60006117d1601283610eaf565b91506117dc8261179b565b602082019050919050565b60006020820190508181036000830152611800816117c4565b9050919050565b600060408201905081810360008301526118218185610eea565b905081810360208301526118358184610eea565b90509392505050565b600061184982610c75565b91507fffffffffffffffffffffffffffffffffffffffffffffffffffffffffffffffff820361187b5761187a611660565b5b60018201905091905056fea264697066735822122022820d0ad98fbf536b7b45c4780f8e936bf5514ae6afcc479fc3839569a41f7a64736f6c634300081c0033",
  "linkReferences": {},
  "deployedLinkReferences": {}
}