{
  "_format": "hh-sol-artifact-1",
  "contractName": "DeviceRegistry",
  "sourceName": "contracts/DeviceRegistry.sol",
  "abi": [
    {
      "anonymous": false,
      "inputs": [
        {
          "indexed": true,
          "internalType": "string",
          "name": "deviceId",
          "type": "string"
        },
        {
          "indexed": false,
          "internalType": "string",
          "name": "newMetadataURI",
          "type": "string"
        }
      ],
      "name": "DeviceMetadataUpdated",
      "type": "event"
    },
    {
      "anonymous": false,
      "inputs": [
        {
          "indexed": true,
          "internalType": "string",
          "name": "deviceId",
          "type": "string"
        },
        {
          "indexed": true,
          "internalType": "address",
          "name": "owner",
          "type": "address"
        },
        {
          "indexed": false,
          "internalType": "string",
          "name": "name",
          "type": "string"
        },
        {
          "indexed": false,
          "internalType": "string",
          "name": "location",
          "type": "string"
        },
        {
          "indexed": false,
          "internalType": "string",
          "name": "metadataURI",
          "type": "string"
        }
      ],
      "name": "DeviceRegistered",
      "type": "event"
    },
    {
      "inputs": [],
      "name": "getAllDeviceIds",
      "outputs": [
        {
          "internalType": "string[]",
          "name": "",
          "type": "string[]"
        }
      ],
      "stateMutability": "view",
      "type": "function"
    },
    {
      "inputs": [
        {
          "internalType": "string",
          "name": "deviceId",
          "type": "string"
        }
      ],
      "name": "getDevice",
      "outputs": [
        {
          "internalType": "string",
          "name": "name",
          "type": "string"
        },
        {
          "internalType": "string",
          "name": "location",
          "type": "string"
        },
        {
          "internalType": "address",
          "name": "owner",
          "type": "address"
        },
        {
          "internalType": "string",
          "name": "metadataURI",
          "type": "string"
        },
        {
          "internalType": "uint256",
          "name": "registeredAt",
          "type": "uint256"
        }
      ],
      "stateMutability": "view",
      "type": "function"
    },
    {
      "inputs": [
        {
          "internalType": "string",
          "name": "deviceId",
          "type": "string"
        }
      ],
      "name": "isRegistered",
      "outputs": [
        {
          "internalType": "bool",
          "name": "",
          "type": "bool"
        }
      ],
      "stateMutability": "view",
      "type": "function"
    },
    {
      "inputs": [
        {
          "internalType": "string",
          "name": "deviceId",
          "type": "string"
        },
        {
          "internalType": "string",
          "name": "name",
          "type": "string"
        },
        {
          "internalType": "string",
          "name": "location",
          "type": "string"
        },
        {
          "internalType": "string",
          "name": "metadataURI",
          "type": "string"
        }
      ],
      "name": "registerDevice",
      "outputs": [],
      "stateMutability": "nonpayable",
      "type": "function"
    },
    {
      "inputs": [
        {
          "internalType": "string",
          "name": "deviceId",
          "type": "string"
        },
        {
          "internalType": "string",
          "name": "newMetadataURI",
          "type": "string"
        }
      ],
      "name": "updateMetadata",
      "outputs": [],
      "stateMutability": "nonpayable",
      "type": "function"
    }
  ],
  "bytecode": "0x6080604052348015600f57600080fd5b506116be8061001f6000396000f3fe608060405234801561001057600080fd5b50600436106100575760003560e01c8063464707ce1461005c57806356ce0e6c1461007a578063b71a034614610096578063c822d7f0146100ca578063cecfe084146100fa575b600080fd5b610064610116565b6040516100719190610b93565b60405180910390f35b610094600480360381019061008f9190610c24565b6101ef565b005b6100b060048036038101906100ab9190610ca5565b61039a565b6040516100c1959493929190610d96565b60405180910390f35b6100e460048036038101906100df9190610ca5565b610624565b6040516100f19190610e19565b60405180910390f35b610114600480360381019061010f9190610e34565b61065e565b005b60606001805480602002602001604051908101604052809291908181526020016000905b828210156101e657838290600052602060002001805461015990610f4c565b80601f016020809104026020016040519081016040528092919081815260200182805461018590610f4c565b80156101d25780601f106101a7576101008083540402835291602001916101d2565b820191906000526020600020905b8154815290600101906020018083116101b557829003601f168201915b50505050508152602001906001019061013a565b50505050905090565b60008484604051610201929190610fbc565b908152602001604051809103902060050160009054906101000a900460ff1661025f576040517f08c379a000000000000000000000000000000000000000000000000000000000815260040161025690611021565b60405180910390fd5b60008484604051610271929190610fbc565b908152602001604051809103902060020160009054906101000a900473ffffffffffffffffffffffffffffffffffffffff1673ffffffffffffffffffffffffffffffffffffffff163373ffffffffffffffffffffffffffffffffffffffff1614610310576040517f08c379a00000000000000000000000000000000000000000000000000000000081526004016103079061108d565b60405180910390fd5b818160008686604051610324929190610fbc565b90815260200160405180910390206003019182610342929190611293565b508383604051610353929190610fbc565b60405180910390207f2c7b85c1d1e465ba73780433095612d92effa928a942db8c4b5862340095ce9e838360405161038c929190611390565b60405180910390a250505050565b6060806000606060008087876040516103b4929190610fbc565b908152602001604051809103902060050160009054906101000a900460ff16610412576040517f08c379a000000000000000000000000000000000000000000000000000000000815260040161040990611021565b60405180910390fd5b6000808888604051610425929190610fbc565b9081526020016040518091039020905080600001816001018260020160009054906101000a900473ffffffffffffffffffffffffffffffffffffffff1683600301846004015484805461047790610f4c565b80601f01602080910402602001604051908101604052809291908181526020018280546104a390610f4c565b80156104f05780601f106104c5576101008083540402835291602001916104f0565b820191906000526020600020905b8154815290600101906020018083116104d357829003601f168201915b5050505050945083805461050390610f4c565b80601f016020809104026020016040519081016040528092919081815260200182805461052f90610f4c565b801561057c5780601f106105515761010080835404028352916020019161057c565b820191906000526020600020905b81548152906001019060200180831161055f57829003601f168201915b5050505050935081805461058f90610f4c565b80601f01602080910402602001604051908101604052809291908181526020018280546105bb90610f4c565b80156106085780601f106105dd57610100808354040283529160200191610608565b820191906000526020600020905b8154815290600101906020018083116105eb57829003601f168201915b5050505050915095509550955095509550509295509295909350565b6000808383604051610637929190610fbc565b908152602001604051809103902060050160009054906101000a900460ff16905092915050565b60008888604051610670929190610fbc565b908152602001604051809103902060050160009054906101000a900460ff16156106cf576040517f08c379a00000000000000000000000000000000000000000000000000000000081526004016106c690611400565b60405180910390fd5b60008888905011610715576040517f08c379a000000000000000000000000000000000000000000000000000000000815260040161070c9061146c565b60405180910390fd5b6000868690501161075b576040517f08c379a0000000000000000000000000000000000000000000000000000000008152600401610752906114d8565b60405180910390fd5b600084849050116107a1576040517f08c379a000000000000000000000000000000000000000000000000000000000815260040161079890611544565b60405180910390fd5b6040518060c0016040528087878080601f016020809104026020016040519081016040528093929190818152602001838380828437600081840152601f19601f82011690508083019250505050505050815260200185858080601f016020809104026020016040519081016040528093929190818152602001838380828437600081840152601f19601f8201169050808301925050505050505081526020013373ffffffffffffffffffffffffffffffffffffffff16815260200183838080601f016020809104026020016040519081016040528093929190818152602001838380828437600081840152601f19601f82011690508083019250505050505050815260200142815260200160011515815250600089896040516108c5929190610fbc565b908152602001604051809103902060008201518160000190816108e89190611564565b5060208201518160010190816108fe9190611564565b5060408201518160020160006101000a81548173ffffffffffffffffffffffffffffffffffffffff021916908373ffffffffffffffffffffffffffffffffffffffff160217905550606082015181600301908161095b9190611564565b506080820151816004015560a08201518160050160006101000a81548160ff02191690831515021790555090505060018888909180600181540180825580915050600190039060005260206000200160009091929091929091929091925091826109c6929190611293565b503373ffffffffffffffffffffffffffffffffffffffff1688886040516109ee929190610fbc565b60405180910390207fdc0b060c57e10c8061c3890c5bce8081facd2688c1f49eb9278c998d25bd44ce888888888888604051610a2f96959493929190611636565b60405180910390a35050505050505050565b600081519050919050565b600082825260208201905092915050565b6000819050602082019050919050565b600081519050919050565b600082825260208201905092915050565b60005b83811015610aa7578082015181840152602081019050610a8c565b60008484015250505050565b6000601f19601f8301169050919050565b6000610acf82610a6d565b610ad98185610a78565b9350610ae9818560208601610a89565b610af281610ab3565b840191505092915050565b6000610b098383610ac4565b905092915050565b6000602082019050919050565b6000610b2982610a41565b610b338185610a4c565b935083602082028501610b4585610a5d565b8060005b85811015610b815784840389528151610b628582610afd565b9450610b6d83610b11565b925060208a01995050600181019050610b49565b50829750879550505050505092915050565b60006020820190508181036000830152610bad8184610b1e565b905092915050565b600080fd5b600080fd5b600080fd5b600080fd5b600080fd5b60008083601f840112610be457610be3610bbf565b5b8235905067ffffffffffffffff811115610c0157610c00610bc4565b5b602083019150836001820283011115610c1d57610c1c610bc9565b5b9250929050565b60008060008060408587031215610c3e57610c3d610bb5565b5b600085013567ffffffffffffffff811115610c5c57610c5b610bba565b5b610c6887828801610bce565b9450945050602085013567ffffffffffffffff811115610c8b57610c8a610bba565b5b610c9787828801610bce565b925092505092959194509250565b60008060208385031215610cbc57610cbb610bb5565b5b600083013567ffffffffffffffff811115610cda57610cd9610bba565b5b610ce685828601610bce565b92509250509250929050565b600082825260208201905092915050565b6000610d0e82610a6d565b610d188185610cf2565b9350610d28818560208601610a89565b610d3181610ab3565b840191505092915050565b600073ffffffffffffffffffffffffffffffffffffffff82169050919050565b6000610d6782610d3c565b9050919050565b610d7781610d5c565b82525050565b6000819050919050565b610d9081610d7d565b82525050565b600060a0820190508181036000830152610db08188610d03565b90508181036020830152610dc48187610d03565b9050610dd36040830186610d6e565b8181036060830152610de58185610d03565b9050610df46080830184610d87565b9695505050505050565b60008115159050919050565b610e1381610dfe565b82525050565b6000602082019050610e2e6000830184610e0a565b92915050565b6000806000806000806000806080898b031215610e5457610e53610bb5565b5b600089013567ffffffffffffffff811115610e7257610e71610bba565b5b610e7e8b828c01610bce565b9850985050602089013567ffffffffffffffff811115610ea157610ea0610bba565b5b610ead8b828c01610bce565b9650965050604089013567ffffffffffffffff811115610ed057610ecf610bba565b5b610edc8b828c01610bce565b9450945050606089013567ffffffffffffffff811115610eff57610efe610bba565b5b610f0b8b828c01610bce565b92509250509295985092959890939650565b7f4e487b7100000000000000000000000000000000000000000000000000000000600052602260045260246000fd5b60006002820490506001821680610f6457607f821691505b602082108103610f7757610f76610f1d565b5b50919050565b600081905092915050565b82818337600083830152505050565b6000610fa38385610f7d565b9350610fb0838584610f88565b82840190509392505050565b6000610fc9828486610f97565b91508190509392505050565b7f446576696365206e6f7420726567697374657265640000000000000000000000600082015250565b600061100b601583610cf2565b915061101682610fd5565b602082019050919050565b6000602082019050818103600083015261103a81610ffe565b9050919050565b7f4e6f742074686520646576696365206f776e6572000000000000000000000000600082015250565b6000611077601483610cf2565b915061108282611041565b602082019050919050565b600060208201905081810360008301526110a68161106a565b9050919050565b600082905092915050565b7f4e487b7100000000000000000000000000000000000000000000000000000000600052604160045260246000fd5b60008190508160005260206000209050919050565b60006020601f8301049050919050565b600082821b905092915050565b6000600883026111497fffffffffffffffffffffffffffffffffffffffffffffffffffffffffffffffff8261110c565b611153868361110c565b95508019841693508086168417925050509392505050565b6000819050919050565b600061119061118b61118684610d7d565b61116b565b610d7d565b9050919050565b6000819050919050565b6111aa83611175565b6111be6111b682611197565b848454611119565b825550505050565b600090565b6111d36111c6565b6111de8184846111a1565b505050565b5b81811015611202576111f76000826111cb565b6001810190506111e4565b5050565b601f82111561124757611218816110e7565b611221846110fc565b81016020851015611230578190505b61124461123c856110fc565b8301826111e3565b50505b505050565b600082821c905092915050565b600061126a6000198460080261124c565b1980831691505092915050565b60006112838383611259565b9150826002028217905092915050565b61129d83836110ad565b67ffffffffffffffff8111156112b6576112b56110b8565b5b6112c08254610f4c565b6112cb828285611206565b6000601f8311600181146112fa57600084156112e8578287013590505b6112f28582611277565b86555061135a565b601f198416611308866110e7565b60005b828110156113305784890135825560018201915060208501945060208101905061130b565b8683101561134d5784890135611349601f891682611259565b8355505b6001600288020188555050505b50505050505050565b600061136f8385610cf2565b935061137c838584610f88565b61138583610ab3565b840190509392505050565b600060208201905081810360008301526113ab818486611363565b90509392505050565b7f44657669636520616c7265616479207265676973746572656400000000000000600082015250565b60006113ea601983610cf2565b91506113f5826113b4565b602082019050919050565b60006020820190508181036000830152611419816113dd565b9050919050565b7f4465766963652049442072657175697265640000000000000000000000000000600082015250565b6000611456601283610cf2565b915061146182611420565b602082019050919050565b6000602082019050818103600083015261148581611449565b9050919050565b7f4e616d6520726571756972656400000000000000000000000000000000000000600082015250565b60006114c2600d83610cf2565b91506114cd8261148c565b602082019050919050565b600060208201905081810360008301526114f1816114b5565b9050919050565b7f4c6f636174696f6e207265717569726564000000000000000000000000000000600082015250565b600061152e601183610cf2565b9150611539826114f8565b602082019050919050565b6000602082019050818103600083015261155d81611521565b9050919050565b61156d82610a6d565b67ffffffffffffffff811115611586576115856110b8565b5b6115908254610f4c565b61159b828285611206565b600060209050601f8311600181146115ce57600084156115bc578287015190505b6115c68582611277565b86555061162e565b601f1984166115dc866110e7565b60005b82811015611604578489015182556001820191506020850194506020810190506115df565b86831015611621578489015161161d601f891682611259565b8355505b6001600288020188555050505b505050505050565b6000606082019050818103600083015261165181888a611363565b90508181036020830152611666818688611363565b9050818103604083015261167b818486611363565b905097965050505050505056fea26469706673582212209b3a1f30378af601780eb25ea66d2bda8750f4e2184fe21bf874524f34b52dec64736f6c634300081c0033",
  "linkReferences": {},
  "deployedLinkReferences": {}
}