{
  "_format": "hh-sol-artifact-1",
  "contractName": "DeviceRegistry",
  "sourceName": "contracts/DeviceRegistry.sol",
  "abi": [
    {
      "anonymous": false,
      "inputs": [
        {
          "indexed": true,
          "internalType": "string",
          "name": "deviceId",
          "type": "string"
        },
        {
          "indexed": false,
          "internalType": "string",
          "name": "newMetadataURI",
          "type": "string"
        }
      ],
      "name": "DeviceMetadataUpdated",
      "type": "event"
    },
    {
      "anonymous": false,
      "inputs": [
        {
          "indexed": true,
          "internalType": "string",
          "name": "deviceId",
          "type": "string"
        },
        {
          "indexed": true,
          "internalType": "address",
          "name": "owner",
          "type": "address"
        },
        {
          "indexed": false,
          "internalType": "string",
          "name": "name",
          "type": "string"
        },
        {
          "indexed": false,
          "internalType": "string",
          "name": "location",
          "type": "string"
        },
        {
          "indexed": false,
          "internalType": "string",
          "name": "metadataURI",
          "type": "string"
        }
      ],
      "name": "DeviceRegistered",
      "type": "event"
    },
    {
      "inputs": [],
      "name": "getAllDeviceIds",
      "outputs": [
        {
          "internalType": "string[]",
          "name": "",
          "type": "string[]"
        }
      ],
      "stateMutability": "view",
      "type": "function"
    },
    {
      "inputs": [
        {
          "internalType": "string",
          "name": "deviceId",
          "type": "string"
        }
      ],
      "name": "getDevice",
      "outputs": [
        {
          "internalType": "string",
          "name": "name",
          "type": "string"
        },
        {
          "internalType": "string",
          "name": "location",
          "type": "string"
        },
        {
          "internalType": "address",
          "name": "owner",
          "type": "address"
        },
        {
          "internalType": "string",
          "name": "metadataURI",
          "type": "string"
        },
        {
          "internalType": "uint256",
          "name": "registeredAt",
          "type": "uint256"
        }
      ],
      "stateMutability": "view",
      "type": "function"
    },
    {
      "inputs": [
        {
          "internalType": "address",
          "name": "owner",
          "type": "address"
        }
      ],
      "name": "getDevicesByOwner",
      "outputs": [
        {
          "internalType": "string[]",
          "name": "",
          "type": "string[]"
        }
      ],
      "stateMutability": "view",
      "type": "function"
    },
    {
      "inputs": [
        {
          "internalType": "string",
          "name": "deviceId",
          "type": "string"
        }
      ],
      "name": "isRegistered",
      "outputs": [
        {
          "internalType": "bool",
          "name": "",
          "type": "bool"
        }
      ],
      "stateMutability": "view",
      "type": "function"
    },
    {
      "inputs": [
        {
          "internalType": "string",
          "name": "deviceId",
          "type": "string"
        },
        {
          "internalType": "string",
          "name": "name",
          "type": "string"
        },
        {
          "internalType": "string",
          "name": "location",
          "type": "string"
        },
        {
          "internalType": "string",
          "name": "metadataURI",
          "type": "string"
        }
      ],
      "name": "registerDevice",
      "outputs": [],
      "stateMutability": "nonpayable",
      "type": "function"
    },
    {
      "inputs": [
        {
          "internalType": "string",
          "name": "deviceId",
          "type": "string"
        },
        {
          "internalType": "string",
          "name": "newMetadataURI",
          "type": "string"
        }
      ],
      "name": "updateMetadata",
      "outputs": [],
      "stateMutability": "nonpayable",
      "type": "function"
    }
  ],
  "bytecode": "0x6080604052348015600f57600080fd5b50611b358061001f6000396000f3fe608060405234801561001057600080fd5b50600436106100625760003560e01c8063464707ce1461006757806351b0e9871461008557806356ce0e6c146100b5578063b71a0346146100d1578063c822d7f014610105578063cecfe08414610135575b600080fd5b61006f610151565b60405161007c9190610e71565b60405180910390f35b61009f600480360381019061009a9190610efb565b61022a565b6040516100ac9190610e71565b60405180910390f35b6100cf60048036038101906100ca9190610f8d565b6104cd565b005b6100eb60048036038101906100e6919061100e565b610678565b6040516100fc9594939291906110cd565b60405180910390f35b61011f600480360381019061011a919061100e565b610902565b60405161012c9190611150565b60405180910390f35b61014f600480360381019061014a919061116b565b61093c565b005b60606001805480602002602001604051908101604052809291908181526020016000905b8282101561022157838290600052602060002001805461019490611283565b80601f01602080910402602001604051908101604052809291908181526020018280546101c090611283565b801561020d5780601f106101e25761010080835404028352916020019161020d565b820191906000526020600020905b8154815290600101906020018083116101f057829003601f168201915b505050505081526020019060010190610175565b50505050905090565b6060600080600180549050905060005b818110156102ef578473ffffffffffffffffffffffffffffffffffffffff1660006001838154811061026f5761026e6112b4565b5b906000526020600020016040516102869190611386565b908152602001604051809103902060020160009054906101000a900473ffffffffffffffffffffffffffffffffffffffff1673ffffffffffffffffffffffffffffffffffffffff16036102e25782806102de906113cc565b9350505b808060010191505061023a565b5060008267ffffffffffffffff81111561030c5761030b611414565b5b60405190808252806020026020018201604052801561033f57816020015b606081526020019060019003908161032a5790505b5090506000805b838110156104c0578673ffffffffffffffffffffffffffffffffffffffff1660006001838154811061037b5761037a6112b4565b5b906000526020600020016040516103929190611386565b908152602001604051809103902060020160009054906101000a900473ffffffffffffffffffffffffffffffffffffffff1673ffffffffffffffffffffffffffffffffffffffff16036104b357600181815481106103f3576103f26112b4565b5b90600052602060002001805461040890611283565b80601f016020809104026020016040519081016040528092919081815260200182805461043490611283565b80156104815780601f1061045657610100808354040283529160200191610481565b820191906000526020600020905b81548152906001019060200180831161046457829003601f168201915b5050505050838381518110610499576104986112b4565b5b602002602001018190525081806104af906113cc565b9250505b8080600101915050610346565b5081945050505050919050565b600084846040516104df929190611477565b908152602001604051809103902060050160009054906101000a900460ff1661053d576040517f08c379a0000000000000000000000000000000000000000000000000000000008152600401610534906114dc565b60405180910390fd5b6000848460405161054f929190611477565b908152602001604051809103902060020160009054906101000a900473ffffffffffffffffffffffffffffffffffffffff1673ffffffffffffffffffffffffffffffffffffffff163373ffffffffffffffffffffffffffffffffffffffff16146105ee576040517f08c379a00000000000000000000000000000000000000000000000000000000081526004016105e590611548565b60405180910390fd5b818160008686604051610602929190611477565b9081526020016040518091039020600301918261062092919061170a565b508383604051610631929190611477565b60405180910390207f2c7b85c1d1e465ba73780433095612d92effa928a942db8c4b5862340095ce9e838360405161066a929190611807565b60405180910390a250505050565b606080600060606000808787604051610692929190611477565b908152602001604051809103902060050160009054906101000a900460ff166106f0576040517f08c379a00000000000000000000000000000000000000000000000000000000081526004016106e7906114dc565b60405180910390fd5b6000808888604051610703929190611477565b9081526020016040518091039020905080600001816001018260020160009054906101000a900473ffffffffffffffffffffffffffffffffffffffff1683600301846004015484805461075590611283565b80601f016020809104026020016040519081016040528092919081815260200182805461078190611283565b80156107ce5780601f106107a3576101008083540402835291602001916107ce565b820191906000526020600020905b8154815290600101906020018083116107b157829003601f168201915b505050505094508380546107e190611283565b80601f016020809104026020016040519081016040528092919081815260200182805461080d90611283565b801561085a5780601f1061082f5761010080835404028352916020019161085a565b820191906000526020600020905b81548152906001019060200180831161083d57829003601f168201915b5050505050935081805461086d90611283565b80601f016020809104026020016040519081016040528092919081815260200182805461089990611283565b80156108e65780601f106108bb576101008083540402835291602001916108e6565b820191906000526020600020905b8154815290600101906020018083116108c957829003601f168201915b5050505050915095509550955095509550509295509295909350565b6000808383604051610915929190611477565b908152602001604051809103902060050160009054906101000a900460ff16905092915050565b6000888860405161094e929190611477565b908152602001604051809103902060050160009054906101000a900460ff16156109ad576040517f08c379a00000000000000000000000000000000000000000000000000000000081526004016109a490611877565b60405180910390fd5b600088889050116109f3576040517f08c379a00000000000000000000000000000000000000000000000000000000081526004016109ea906118e3565b60405180910390fd5b60008686905011610a39576040517f08c379a0000000000000000000000000000000000000000000000000000000008152600401610a309061194f565b60405180910390fd5b60008484905011610a7f576040517f08c379a0000000000000000000000000000000000000000000000000000000008152600401610a76906119bb565b60405180910390fd5b6040518060c0016040528087878080601f016020809104026020016040519081016040528093929190818152602001838380828437600081840152601f19601f82011690508083019250505050505050815260200185858080601f016020809104026020016040519081016040528093929190818152602001838380828437600081840152601f19601f8201169050808301925050505050505081526020013373ffffffffffffffffffffffffffffffffffffffff16815260200183838080601f016020809104026020016040519081016040528093929190818152602001838380828437600081840152601f19601f8201169050808301925050505050505081526020014281526020016001151581525060008989604051610ba3929190611477565b90815260200160405180910390206000820151816000019081610bc691906119db565b506020820151816001019081610bdc91906119db565b5060408201518160020160006101000a81548173ffffffffffffffffffffffffffffffffffffffff021916908373ffffffffffffffffffffffffffffffffffffffff1602179055506060820151816003019081610c3991906119db565b506080820151816004015560a08201518160050160006101000a81548160ff0219169083151502179055509050506001888890918060018154018082558091505060019003906000526020600020016000909192909192909192909192509182610ca492919061170a565b503373ffffffffffffffffffffffffffffffffffffffff168888604051610ccc929190611477565b60405180910390207fdc0b060c57e10c8061c3890c5bce8081facd2688c1f49eb9278c998d25bd44ce888888888888604051610d0d96959493929190611aad565b60405180910390a35050505050505050565b600081519050919050565b600082825260208201905092915050565b6000819050602082019050919050565b600081519050919050565b600082825260208201905092915050565b60005b83811015610d85578082015181840152602081019050610d6a565b60008484015250505050565b6000601f19601f8301169050919050565b6000610dad82610d4b565b610db78185610d56565b9350610dc7818560208601610d67565b610dd081610d91565b840191505092915050565b6000610de78383610da2565b905092915050565b6000602082019050919050565b6000610e0782610d1f565b610e118185610d2a565b935083602082028501610e2385610d3b565b8060005b85811015610e5f5784840389528151610e408582610ddb565b9450610e4b83610def565b925060208a01995050600181019050610e27565b50829750879550505050505092915050565b60006020820190508181036000830152610e8b8184610dfc565b905092915050565b600080fd5b600080fd5b600073ffffffffffffffffffffffffffffffffffffffff82169050919050565b6000610ec882610e9d565b9050919050565b610ed881610ebd565b8114610ee357600080fd5b50565b600081359050610ef581610ecf565b92915050565b600060208284031215610f1157610f10610e93565b5b6000610f1f84828501610ee6565b91505092915050565b600080fd5b600080fd5b600080fd5b60008083601f840112610f4d57610f4c610f28565b5b8235905067ffffffffffffffff811115610f6a57610f69610f2d565b5b602083019150836001820283011115610f8657610f85610f32565b5b9250929050565b60008060008060408587031215610fa757610fa6610e93565b5b600085013567ffffffffffffffff811115610fc557610fc4610e98565b5b610fd187828801610f37565b9450945050602085013567ffffffffffffffff811115610ff457610ff3610e98565b5b61100087828801610f37565b925092505092959194509250565b6000806020838503121561102557611024610e93565b5b600083013567ffffffffffffffff81111561104357611042610e98565b5b61104f85828601610f37565b92509250509250929050565b600082825260208201905092915050565b600061107782610d4b565b611081818561105b565b9350611091818560208601610d67565b61109a81610d91565b840191505092915050565b6110ae81610ebd565b82525050565b6000819050919050565b6110c7816110b4565b82525050565b600060a08201905081810360008301526110e7818861106c565b905081810360208301526110fb818761106c565b905061110a60408301866110a5565b818103606083015261111c818561106c565b905061112b60808301846110be565b9695505050505050565b60008115159050919050565b61114a81611135565b82525050565b60006020820190506111656000830184611141565b92915050565b6000806000806000806000806080898b03121561118b5761118a610e93565b5b600089013567ffffffffffffffff8111156111a9576111a8610e98565b5b6111b58b828c01610f37565b9850985050602089013567ffffffffffffffff8111156111d8576111d7610e98565b5b6111e48b828c01610f37565b9650965050604089013567ffffffffffffffff81111561120757611206610e98565b5b6112138b828c01610f37565b9450945050606089013567ffffffffffffffff81111561123657611235610e98565b5b6112428b828c01610f37565b92509250509295985092959890939650565b7f4e487b7100000000000000000000000000000000000000000000000000000000600052602260045260246000fd5b6000600282049050600182168061129b57607f821691505b6020821081036112ae576112ad611254565b5b50919050565b7f4e487b7100000000000000000000000000000000000000000000000000000000600052603260045260246000fd5b600081905092915050565b60008190508160005260206000209050919050565b6000815461131081611283565b61131a81866112e3565b94506001821660008114611335576001811461134a5761137d565b60ff198316865281151582028601935061137d565b611353856112ee565b60005b8381101561137557815481890152600182019150602081019050611356565b838801955050505b50505092915050565b60006113928284611303565b915081905092915050565b7f4e487b7100000000000000000000000000000000000000000000000000000000600052601160045260246000fd5b60006113d7826110b4565b91507fffffffffffffffffffffffffffffffffffffffffffffffffffffffffffffffff82036114095761140861139d565b5b600182019050919050565b7f4e487b7100000000000000000000000000000000000000000000000000000000600052604160045260246000fd5b82818337600083830152505050565b600061145e83856112e3565b935061146b838584611443565b82840190509392505050565b6000611484828486611452565b91508190509392505050565b7f446576696365206e6f7420726567697374657265640000000000000000000000600082015250565b60006114c660158361105b565b91506114d182611490565b602082019050919050565b600060208201905081810360008301526114f5816114b9565b9050919050565b7f4e6f742074686520646576696365206f776e6572000000000000000000000000600082015250565b600061153260148361105b565b915061153d826114fc565b602082019050919050565b6000602082019050818103600083015261156181611525565b9050919050565b600082905092915050565b60006020601f8301049050919050565b600082821b905092915050565b6000600883026115c07fffffffffffffffffffffffffffffffffffffffffffffffffffffffffffffffff82611583565b6115ca8683611583565b95508019841693508086168417925050509392505050565b6000819050919050565b60006116076116026115fd846110b4565b6115e2565b6110b4565b9050919050565b6000819050919050565b611621836115ec565b61163561162d8261160e565b848454611590565b825550505050565b600090565b61164a61163d565b611655818484611618565b505050565b5b818110156116795761166e600082611642565b60018101905061165b565b5050565b601f8211156116be5761168f816112ee565b61169884611573565b810160208510156116a7578190505b6116bb6116b385611573565b83018261165a565b50505b505050565b600082821c905092915050565b60006116e1600019846008026116c3565b1980831691505092915050565b60006116fa83836116d0565b9150826002028217905092915050565b6117148383611568565b67ffffffffffffffff81111561172d5761172c611414565b5b6117378254611283565b61174282828561167d565b6000601f831160018114611771576000841561175f578287013590505b61176985826116ee565b8655506117d1565b601f19841661177f866112ee565b60005b828110156117a757848901358255600182019150602085019450602081019050611782565b868310156117c457848901356117c0601f8916826116d0565b8355505b6001600288020188555050505b50505050505050565b60006117e6838561105b565b93506117f3838584611443565b6117fc83610d91565b840190509392505050565b600060208201905081810360008301526118228184866117da565b90509392505050565b7f44657669636520616c7265616479207265676973746572656400000000000000600082015250565b600061186160198361105b565b915061186c8261182b565b602082019050919050565b6000602082019050818103600083015261189081611854565b9050919050565b7f4465766963652049442072657175697265640000000000000000000000000000600082015250565b60006118cd60128361105b565b91506118d882611897565b602082019050919050565b600060208201905081810360008301526118fc816118c0565b9050919050565b7f4e616d6520726571756972656400000000000000000000000000000000000000600082015250565b6000611939600d8361105b565b915061194482611903565b602082019050919050565b600060208201905081810360008301526119688161192c565b9050919050565b7f4c6f636174696f6e207265717569726564000000000000000000000000000000600082015250565b60006119a560118361105b565b91506119b08261196f565b602082019050919050565b600060208201905081810360008301526119d481611998565b9050919050565b6119e482610d4b565b67ffffffffffffffff8111156119fd576119fc611414565b5b611a078254611283565b611a1282828561167d565b600060209050601f831160018114611a455760008415611a33578287015190505b611a3d85826116ee565b865550611aa5565b601f198416611a53866112ee565b60005b82811015611a7b57848901518255600182019150602085019450602081019050611a56565b86831015611a985784890151611a94601f8916826116d0565b8355505b6001600288020188555050505b505050505050565b60006060820190508181036000830152611ac881888a6117da565b90508181036020830152611add8186886117da565b90508181036040830152611af28184866117da565b905097965050505050505056fea264697066735822122022d05d58bec068eea166c3a0556041d45ac7a6e022a83176a8873668330b73d664736f6c634300081c0033",
  "linkReferences": {},
  "deployedLinkReferences": {}
}