{
  "_format": "hh-sol-artifact-1",
  "contractName": "Marketplace",
  "sourceName": "contracts/Marketplace.sol",
  "abi": [
    {
      "inputs": [
        {
          "internalType": "address",
          "name": "dataPublisherAddress",
          "type": "address"
        }
      ],
      "stateMutability": "nonpayable",
      "type": "constructor"
    },
    {
      "anonymous": false,
      "inputs": [
        {
          "indexed": false,
          "internalType": "uint256",
          "name": "dataId",
          "type": "uint256"
        },
        {
          "indexed": false,
          "internalType": "address",
          "name": "publisher",
          "type": "address"
        },
        {
          "indexed": false,
          "internalType": "uint256",
          "name": "price",
          "type": "uint256"
        }
      ],
      "name": "DataListed",
      "type": "event"
    },
    {
      "anonymous": false,
      "inputs": [
        {
          "indexed": false,
          "internalType": "uint256",
          "name": "dataId",
          "type": "uint256"
        },
        {
          "indexed": false,
          "internalType": "address",
          "name": "buyer",
          "type": "address"
        }
      ],
      "name": "DataPurchased",
      "type": "event"
    },
    {
      "inputs": [
        {
          "internalType": "uint256",
          "name": "",
          "type": "uint256"
        }
      ],
      "name": "allListings",
      "outputs": [
        {
          "internalType": "uint256",
          "name": "dataId",
          "type": "uint256"
        },
        {
          "internalType": "address",
          "name": "publisher",
          "type": "address"
        },
        {
          "internalType": "uint256",
          "name": "price",
          "type": "uint256"
        },
        {
          "internalType": "bool",
          "name": "isSold",
          "type": "bool"
        }
      ],
      "stateMutability": "view",
      "type": "function"
    },
    {
      "inputs": [
        {
          "internalType": "uint256",
          "name": "dataId",
          "type": "uint256"
        }
      ],
      "name": "buyData",
      "outputs": [],
      "stateMutability": "payable",
      "type": "function"
    },
    {
      "inputs": [
        {
          "internalType": "uint256",
          "name": "",
          "type": "uint256"
        }
      ],
      "name": "buyers",
      "outputs": [
        {
          "internalType": "address",
          "name": "",
          "type": "address"
        }
      ],
      "stateMutability": "view",
      "type": "function"
    },
    {
      "inputs": [],
      "name": "dataPublisher",
      "outputs": [
        {
          "internalType": "contract IDataPublisher",
          "name": "",
          "type": "address"
        }
      ],
      "stateMutability": "view",
      "type": "function"
    },
    {
      "inputs": [
        {
          "internalType": "address",
          "name": "",
          "type": "address"
        }
      ],
      "name": "earnings",
      "outputs": [
        {
          "internalType": "uint256",
          "name": "",
          "type": "uint256"
        }
      ],
      "stateMutability": "view",
      "type": "function"
    },
    {
      "inputs": [],
      "name": "getAllListings",
      "outputs": [
        {
          "components": [
            {
              "internalType": "uint256",
              "name": "dataId",
              "type": "uint256"
            },
            {
              "internalType": "address",
              "name": "publisher",
              "type": "address"
            },
            {
              "internalType": "uint256",
              "name": "price",
              "type": "uint256"
            },
            {
              "internalType": "bool",
              "name": "isSold",
              "type": "bool"
            }
          ],
          "internalType": "struct Marketplace.Listing[]",
          "name": "",
          "type": "tuple[]"
        }
      ],
      "stateMutability": "view",
      "type": "function"
    },
    {
      "inputs": [
        {
          "internalType": "uint256",
          "name": "dataId",
          "type": "uint256"
        }
      ],
      "name": "getBuyer",
      "outputs": [
        {
          "internalType": "address",
          "name": "",
          "type": "address"
        }
      ],
      "stateMutability": "view",
      "type": "function"
    },
    {
      "inputs": [
        {
          "internalType": "uint256",
          "name": "dataId",
          "type": "uint256"
        }
      ],
      "name": "getDataHash",
      "outputs": [
        {
          "internalType": "string",
          "name": "",
          "type": "string"
        }
      ],
      "stateMutability": "view",
      "type": "function"
    },
    {
      "inputs": [
        {
          "internalType": "address",
          "name": "_publisher",
          "type": "address"
        }
      ],
      "name": "getEarnings",
      "outputs": [
        {
          "internalType": "uint256",
          "name": "",
          "type": "uint256"
        }
      ],
      "stateMutability": "view",
      "type": "function"
    },
    {
      "inputs": [
        {
          "internalType": "uint256",
          "name": "dataId",
          "type": "uint256"
        }
      ],
      "name": "getListing",
      "outputs": [
        {
          "components": [
            {
              "internalType": "uint256",
              "name": "dataId",
              "type": "uint256"
            },
            {
              "internalType": "address",
              "name": "publisher",
              "type": "address"
            },
            {
              "internalType": "uint256",
              "name": "price",
              "type": "uint256"
            },
            {
              "internalType": "bool",
              "name": "isSold",
              "type": "bool"
            }
          ],
          "internalType": "struct Marketplace.Listing",
          "name": "",
          "type": "tuple"
        }
      ],
      "stateMutability": "view",
      "type": "function"
    },
    {
      "inputs": [
        {
          "internalType": "address",
          "name": "_publisher",
          "type": "address"
        }
      ],
      "name": "getListingsByPublisher",
      "outputs": [
        {
          "internalType": "uint256[]",
          "name": "",
          "type": "uint256[]"
        }
      ],
      "stateMutability": "view",
      "type": "function"
    },
    {
      "inputs": [
        {
          "internalType": "uint256",
          "name": "dataId",
          "type": "uint256"
        },
        {
          "internalType": "uint256",
          "name": "price",
          "type": "uint256"
        }
      ],
      "name": "listData",
      "outputs": [],
      "stateMutability": "nonpayable",
      "type": "function"
    },
    {
      "inputs": [
        {
          "internalType": "uint256",
          "name": "",
          "type": "uint256"
        }
      ],
      "name": "listings",
      "outputs": [
        {
          "internalType": "uint256",
          "name": "dataId",
          "type": "uint256"
        },
        {
          "internalType": "address",
          "name": "publisher",
          "type": "address"
        },
        {
          "internalType": "uint256",
          "name": "price",
          "type": "uint256"
        },
        {
          "internalType": "bool",
          "name": "isSold",
          "type": "bool"
        }
      ],
      "stateMutability": "view",
      "type": "function"
    },
    {
      "inputs": [],
      "name": "owner",
      "outputs": [
        {
          "internalType": "address",
          "name": "",
          "type": "address"
        }
      ],
      "stateMutability": "view",
      "type": "function"
    },
    {
      "inputs": [
        {
          "internalType": "address",
          "name": "",
          "type": "address"
        },
        {
          "internalType": "uint256",
          "name": "",
          "type": "uint256"
        }
      ],
      "name": "publisherListings",
      "outputs": [
        {
          "internalType": "uint256",
          "name": "",
          "type": "uint256"
        }
      ],
      "stateMutability": "view",
      "type": "function"
    },
    {
      "inputs": [],
      "name": "withdrawEarnings",
      "outputs": [],
      "stateMutability": "nonpayable",
      "type": "function"
    }
  ],
  "bytecode": "0x608060405234801561001057600080fd5b50604051611dc5380380611dc58339818101604052810190610032919061011c565b336000806101000a81548173ffffffffffffffffffffffffffffffffffffffff021916908373ffffffffffffffffffffffffffffffffffffffff16021790555080600160006101000a81548173ffffffffffffffffffffffffffffffffffffffff021916908373ffffffffffffffffffffffffffffffffffffffff16021790555050610149565b600080fd5b600073ffffffffffffffffffffffffffffffffffffffff82169050919050565b60006100e9826100be565b9050919050565b6100f9816100de565b811461010457600080fd5b50565b600081519050610116816100f0565b92915050565b600060208284031215610132576101316100b9565b5b600061014084828501610107565b91505092915050565b611c6d806101586000396000f3fe6080604052600436106100f35760003560e01c8063a40308d31161008a578063ca209dce11610059578063ca209dce1461037b578063de74e57b14610397578063f2aa8218146103d7578063fc025fa314610414576100f3565b8063a40308d3146102bf578063a595d8fc146102fc578063ae73ccec14610339578063b73c6ce914610364576100f3565b8063306ca5d6116100c6578063306ca5d6146101ef578063543fd3131461021a5780635bf608b8146102575780638da5cb5b14610294576100f3565b806307ce02db146100f85780630eeaa2ef14610135578063107a274a14610175578063131b9c04146101b2575b600080fd5b34801561010457600080fd5b5061011f600480360381019061011a9190611127565b61043d565b60405161012c919061121c565b60405180910390f35b34801561014157600080fd5b5061015c6004803603810190610157919061126a565b6104d4565b60405161016c94939291906112d0565b60405180910390f35b34801561018157600080fd5b5061019c6004803603810190610197919061126a565b610541565b6040516101a99190611388565b60405180910390f35b3480156101be57600080fd5b506101d960048036038101906101d49190611127565b6105f3565b6040516101e691906113a3565b60405180910390f35b3480156101fb57600080fd5b5061020461063c565b604051610211919061141d565b60405180910390f35b34801561022657600080fd5b50610241600480360381019061023c9190611127565b610662565b60405161024e91906113a3565b60405180910390f35b34801561026357600080fd5b5061027e6004803603810190610279919061126a565b61067a565b60405161028b9190611438565b60405180910390f35b3480156102a057600080fd5b506102a96106b7565b6040516102b69190611438565b60405180910390f35b3480156102cb57600080fd5b506102e660048036038101906102e19190611453565b6106db565b6040516102f391906113a3565b60405180910390f35b34801561030857600080fd5b50610323600480360381019061031e919061126a565b61070c565b6040516103309190611523565b60405180910390f35b34801561034557600080fd5b5061034e610862565b60405161035b9190611649565b60405180910390f35b34801561037057600080fd5b50610379610946565b005b6103956004803603810190610390919061126a565b610a5c565b005b3480156103a357600080fd5b506103be60048036038101906103b9919061126a565b610c31565b6040516103ce94939291906112d0565b60405180910390f35b3480156103e357600080fd5b506103fe60048036038101906103f9919061126a565b610c8e565b60405161040b9190611438565b60405180910390f35b34801561042057600080fd5b5061043b6004803603810190610436919061166b565b610cc1565b005b6060600660008373ffffffffffffffffffffffffffffffffffffffff1673ffffffffffffffffffffffffffffffffffffffff1681526020019081526020016000208054806020026020016040519081016040528092919081815260200182805480156104c857602002820191906000526020600020905b8154815260200190600101908083116104b4575b50505050509050919050565b600581815481106104e457600080fd5b90600052602060002090600402016000915090508060000154908060010160009054906101000a900473ffffffffffffffffffffffffffffffffffffffff16908060020154908060030160009054906101000a900460ff16905084565b610549611075565b60026000838152602001908152602001600020604051806080016040529081600082015481526020016001820160009054906101000a900473ffffffffffffffffffffffffffffffffffffffff1673ffffffffffffffffffffffffffffffffffffffff1673ffffffffffffffffffffffffffffffffffffffff168152602001600282015481526020016003820160009054906101000a900460ff1615151515815250509050919050565b6000600460008373ffffffffffffffffffffffffffffffffffffffff1673ffffffffffffffffffffffffffffffffffffffff168152602001908152602001600020549050919050565b600160009054906101000a900473ffffffffffffffffffffffffffffffffffffffff1681565b60046020528060005260406000206000915090505481565b60006003600083815260200190815260200160002060009054906101000a900473ffffffffffffffffffffffffffffffffffffffff169050919050565b60008054906101000a900473ffffffffffffffffffffffffffffffffffffffff1681565b600660205281600052604060002081815481106106f757600080fd5b90600052602060002001600091509150505481565b60603373ffffffffffffffffffffffffffffffffffffffff166003600084815260200190815260200160002060009054906101000a900473ffffffffffffffffffffffffffffffffffffffff1673ffffffffffffffffffffffffffffffffffffffff16146107af576040517f08c379a00000000000000000000000000000000000000000000000000000000081526004016107a6906116f7565b60405180910390fd5b6000600160009054906101000a900473ffffffffffffffffffffffffffffffffffffffff1673ffffffffffffffffffffffffffffffffffffffff1663f75d8ada846040518263ffffffff1660e01b815260040161080c91906113a3565b600060405180830381865afa158015610829573d6000803e3d6000fd5b505050506040513d6000823e3d601f19601f820116820180604052508101906108529190611893565b5050509250505080915050919050565b60606005805480602002602001604051908101604052809291908181526020016000905b8282101561093d5783829060005260206000209060040201604051806080016040529081600082015481526020016001820160009054906101000a900473ffffffffffffffffffffffffffffffffffffffff1673ffffffffffffffffffffffffffffffffffffffff1673ffffffffffffffffffffffffffffffffffffffff168152602001600282015481526020016003820160009054906101000a900460ff16151515158152505081526020019060010190610886565b50505050905090565b6000600460003373ffffffffffffffffffffffffffffffffffffffff1673ffffffffffffffffffffffffffffffffffffffff168152602001908152602001600020549050600081116109cd576040517f08c379a00000000000000000000000000000000000000000000000000000000081526004016109c4906119a4565b60405180910390fd5b6000600460003373ffffffffffffffffffffffffffffffffffffffff1673ffffffffffffffffffffffffffffffffffffffff168152602001908152602001600020819055503373ffffffffffffffffffffffffffffffffffffffff166108fc829081150290604051600060405180830381858888f19350505050158015610a58573d6000803e3d6000fd5b5050565b60006002600083815260200190815260200160002090508060030160009054906101000a900460ff1615610ac5576040517f08c379a0000000000000000000000000000000000000000000000000000000008152600401610abc90611a10565b60405180910390fd5b80600201543414610b0b576040517f08c379a0000000000000000000000000000000000000000000000000000000008152600401610b0290611a7c565b60405180910390fd5b60018160030160006101000a81548160ff021916908315150217905550336003600084815260200190815260200160002060006101000a81548173ffffffffffffffffffffffffffffffffffffffff021916908373ffffffffffffffffffffffffffffffffffffffff16021790555034600460008360010160009054906101000a900473ffffffffffffffffffffffffffffffffffffffff1673ffffffffffffffffffffffffffffffffffffffff1673ffffffffffffffffffffffffffffffffffffffff1681526020019081526020016000206000828254610bed9190611acb565b925050819055507f492df9b9267b3a3ce5c292986f3b886f121fd4ce5835f98cdbcf36977fe62df88233604051610c25929190611aff565b60405180910390a15050565b60026020528060005260406000206000915090508060000154908060010160009054906101000a900473ffffffffffffffffffffffffffffffffffffffff16908060020154908060030160009054906101000a900460ff16905084565b60036020528060005260406000206000915054906101000a900473ffffffffffffffffffffffffffffffffffffffff1681565b600080600160009054906101000a900473ffffffffffffffffffffffffffffffffffffffff1673ffffffffffffffffffffffffffffffffffffffff1663f75d8ada856040518263ffffffff1660e01b8152600401610d1f91906113a3565b600060405180830381865afa158015610d3c573d6000803e3d6000fd5b505050506040513d6000823e3d601f19601f82011682018060405250810190610d659190611893565b955050505092505080610dad576040517f08c379a0000000000000000000000000000000000000000000000000000000008152600401610da490611b74565b60405180910390fd5b3373ffffffffffffffffffffffffffffffffffffffff168273ffffffffffffffffffffffffffffffffffffffff1614610e1b576040517f08c379a0000000000000000000000000000000000000000000000000000000008152600401610e1290611be0565b60405180910390fd5b60405180608001604052808581526020013373ffffffffffffffffffffffffffffffffffffffff16815260200184815260200160001515815250600260008681526020019081526020016000206000820151816000015560208201518160010160006101000a81548173ffffffffffffffffffffffffffffffffffffffff021916908373ffffffffffffffffffffffffffffffffffffffff1602179055506040820151816002015560608201518160030160006101000a81548160ff0219169083151502179055509050506005600260008681526020019081526020016000209080600181540180825580915050600190039060005260206000209060040201600090919091909150600082015481600001556001820160009054906101000a900473ffffffffffffffffffffffffffffffffffffffff168160010160006101000a81548173ffffffffffffffffffffffffffffffffffffffff021916908373ffffffffffffffffffffffffffffffffffffffff160217905550600282015481600201556003820160009054906101000a900460ff168160030160006101000a81548160ff0219169083151502179055505050600660003373ffffffffffffffffffffffffffffffffffffffff1673ffffffffffffffffffffffffffffffffffffffff1681526020019081526020016000208490806001815401808255809150506001900390600052602060002001600090919091909150557fda6e3f4579b83369067bea5d00c3f6f4ea90ea71243054b08c3c0d93a5a1bae584338560405161106793929190611c00565b60405180910390a150505050565b604051806080016040528060008152602001600073ffffffffffffffffffffffffffffffffffffffff168152602001600081526020016000151581525090565b6000604051905090565b600080fd5b600080fd5b600073ffffffffffffffffffffffffffffffffffffffff82169050919050565b60006110f4826110c9565b9050919050565b611104816110e9565b811461110f57600080fd5b50565b600081359050611121816110fb565b92915050565b60006020828403121561113d5761113c6110bf565b5b600061114b84828501611112565b91505092915050565b600081519050919050565b600082825260208201905092915050565b6000819050602082019050919050565b6000819050919050565b61119381611180565b82525050565b60006111a5838361118a565b60208301905092915050565b6000602082019050919050565b60006111c982611154565b6111d3818561115f565b93506111de83611170565b8060005b8381101561120f5781516111f68882611199565b9750611201836111b1565b9250506001810190506111e2565b5085935050505092915050565b6000602082019050818103600083015261123681846111be565b905092915050565b61124781611180565b811461125257600080fd5b50565b6000813590506112648161123e565b92915050565b6000602082840312156112805761127f6110bf565b5b600061128e84828501611255565b91505092915050565b6112a081611180565b82525050565b6112af816110e9565b82525050565b60008115159050919050565b6112ca816112b5565b82525050565b60006080820190506112e56000830187611297565b6112f260208301866112a6565b6112ff6040830185611297565b61130c60608301846112c1565b95945050505050565b61131e816110e9565b82525050565b61132d816112b5565b82525050565b608082016000820151611349600085018261118a565b50602082015161135c6020850182611315565b50604082015161136f604085018261118a565b5060608201516113826060850182611324565b50505050565b600060808201905061139d6000830184611333565b92915050565b60006020820190506113b86000830184611297565b92915050565b6000819050919050565b60006113e36113de6113d9846110c9565b6113be565b6110c9565b9050919050565b60006113f5826113c8565b9050919050565b6000611407826113ea565b9050919050565b611417816113fc565b82525050565b6000602082019050611432600083018461140e565b92915050565b600060208201905061144d60008301846112a6565b92915050565b6000806040838503121561146a576114696110bf565b5b600061147885828601611112565b925050602061148985828601611255565b9150509250929050565b600081519050919050565b600082825260208201905092915050565b60005b838110156114cd5780820151818401526020810190506114b2565b60008484015250505050565b6000601f19601f8301169050919050565b60006114f582611493565b6114ff818561149e565b935061150f8185602086016114af565b611518816114d9565b840191505092915050565b6000602082019050818103600083015261153d81846114ea565b905092915050565b600081519050919050565b600082825260208201905092915050565b6000819050602082019050919050565b608082016000820151611587600085018261118a565b50602082015161159a6020850182611315565b5060408201516115ad604085018261118a565b5060608201516115c06060850182611324565b50505050565b60006115d28383611571565b60808301905092915050565b6000602082019050919050565b60006115f682611545565b6116008185611550565b935061160b83611561565b8060005b8381101561163c57815161162388826115c6565b975061162e836115de565b92505060018101905061160f565b5085935050505092915050565b6000602082019050818103600083015261166381846115eb565b905092915050565b60008060408385031215611682576116816110bf565b5b600061169085828601611255565b92505060206116a185828601611255565b9150509250929050565b7f4e6f742070757263686173656400000000000000000000000000000000000000600082015250565b60006116e1600d8361149e565b91506116ec826116ab565b602082019050919050565b60006020820190508181036000830152611710816116d4565b9050919050565b6000815190506117268161123e565b92915050565b60008151905061173b816110fb565b92915050565b600080fd5b600080fd5b7f4e487b7100000000000000000000000000000000000000000000000000000000600052604160045260246000fd5b611783826114d9565b810181811067ffffffffffffffff821117156117a2576117a161174b565b5b80604052505050565b60006117b56110b5565b90506117c1828261177a565b919050565b600067ffffffffffffffff8211156117e1576117e061174b565b5b6117ea826114d9565b9050602081019050919050565b600061180a611805846117c6565b6117ab565b90508281526020810184848401111561182657611825611746565b5b6118318482856114af565b509392505050565b600082601f83011261184e5761184d611741565b5b815161185e8482602086016117f7565b91505092915050565b611870816112b5565b811461187b57600080fd5b50565b60008151905061188d81611867565b92915050565b60008060008060008060c087890312156118b0576118af6110bf565b5b60006118be89828a01611717565b96505060206118cf89828a0161172c565b955050604087015167ffffffffffffffff8111156118f0576118ef6110c4565b5b6118fc89828a01611839565b945050606087015167ffffffffffffffff81111561191d5761191c6110c4565b5b61192989828a01611839565b935050608061193a89828a01611717565b92505060a061194b89828a0161187e565b9150509295509295509295565b7f4e6f7468696e6720746f20776974686472617700000000000000000000000000600082015250565b600061198e60138361149e565b915061199982611958565b602082019050919050565b600060208201905081810360008301526119bd81611981565b9050919050565b7f416c726561647920736f6c640000000000000000000000000000000000000000600082015250565b60006119fa600c8361149e565b9150611a05826119c4565b602082019050919050565b60006020820190508181036000830152611a29816119ed565b9050919050565b7f496e636f7272656374207061796d656e74000000000000000000000000000000600082015250565b6000611a6660118361149e565b9150611a7182611a30565b602082019050919050565b60006020820190508181036000830152611a9581611a59565b9050919050565b7f4e487b7100000000000000000000000000000000000000000000000000000000600052601160045260246000fd5b6000611ad682611180565b9150611ae183611180565b9250828201905080821115611af957611af8611a9c565b5b92915050565b6000604082019050611b146000830185611297565b611b2160208301846112a6565b9392505050565b7f44617461206e6f7420617661696c61626c650000000000000000000000000000600082015250565b6000611b5e60128361149e565b9150611b6982611b28565b602082019050919050565b60006020820190508181036000830152611b8d81611b51565b9050919050565b7f4f6e6c79207075626c69736865722063616e206c697374000000000000000000600082015250565b6000611bca60178361149e565b9150611bd582611b94565b602082019050919050565b60006020820190508181036000830152611bf981611bbd565b9050919050565b6000606082019050611c156000830186611297565b611c2260208301856112a6565b611c2f6040830184611297565b94935050505056fea264697066735822122018be2feea623c2eba5e6098b3b007bb5b9bc2165b1c5a54a5d0682bb0bf74d1c64736f6c634300081c0033",
  "linkReferences": {},
  "deployedLinkReferences": {}
}