{
  "_format": "hh-sol-artifact-1",
  "contractName": "Marketplace",
  "sourceName": "contracts/Marketplace.sol",
  "abi": [
    {
      "inputs": [
        {
          "internalType": "address",
          "name": "dataPublisherAddress",
          "type": "address"
        }
      ],
      "stateMutability": "nonpayable",
      "type": "constructor"
    },
    {
      "anonymous": false,
      "inputs": [
        {
          "indexed": false,
          "internalType": "uint256",
          "name": "dataId",
          "type": "uint256"
        },
        {
          "indexed": false,
          "internalType": "address",
          "name": "publisher",
          "type": "address"
        },
        {
          "indexed": false,
          "internalType": "uint256",
          "name": "price",
          "type": "uint256"
        }
      ],
      "name": "DataListed",
      "type": "event"
    },
    {
      "anonymous": false,
      "inputs": [
        {
          "indexed": false,
          "internalType": "uint256",
          "name": "dataId",
          "type": "uint256"
        },
        {
          "indexed": false,
          "internalType": "address",
          "name": "buyer",
          "type": "address"
        }
      ],
      "name": "DataPurchased",
      "type": "event"
    },
    {
      "inputs": [
        {
          "internalType": "uint256",
          "name": "dataId",
          "type": "uint256"
        }
      ],
      "name": "buyData",
      "outputs": [],
      "stateMutability": "payable",
      "type": "function"
    },
    {
      "inputs": [
        {
          "internalType": "uint256",
          "name": "",
          "type": "uint256"
        }
      ],
      "name": "buyers",
      "outputs": [
        {
          "internalType": "address",
          "name": "",
          "type": "address"
        }
      ],
      "stateMutability": "view",
      "type": "function"
    },
    {
      "inputs": [],
      "name": "dataPublisher",
      "outputs": [
        {
          "internalType": "contract IDataPublisher",
          "name": "",
          "type": "address"
        }
      ],
      "stateMutability": "view",
      "type": "function"
    },
    {
      "inputs": [
        {
          "internalType": "address",
          "name": "",
          "type": "address"
        }
      ],
      "name": "earnings",
      "outputs": [
        {
          "internalType": "uint256",
          "name": "",
          "type": "uint256"
        }
      ],
      "stateMutability": "view",
      "type": "function"
    },
    {
      "inputs": [
        {
          "internalType": "uint256",
          "name": "dataId",
          "type": "uint256"
        }
      ],
      "name": "getDataHash",
      "outputs": [
        {
          "internalType": "string",
          "name": "",
          "type": "string"
        }
      ],
      "stateMutability": "view",
      "type": "function"
    },
    {
      "inputs": [
        {
          "internalType": "uint256",
          "name": "dataId",
          "type": "uint256"
        },
        {
          "internalType": "uint256",
          "name": "price",
          "type": "uint256"
        }
      ],
      "name": "listData",
      "outputs": [],
      "stateMutability": "nonpayable",
      "type": "function"
    },
    {
      "inputs": [
        {
          "internalType": "uint256",
          "name": "",
          "type": "uint256"
        }
      ],
      "name": "listings",
      "outputs": [
        {
          "internalType": "uint256",
          "name": "dataId",
          "type": "uint256"
        },
        {
          "internalType": "address",
          "name": "publisher",
          "type": "address"
        },
        {
          "internalType": "uint256",
          "name": "price",
          "type": "uint256"
        },
        {
          "internalType": "bool",
          "name": "isSold",
          "type": "bool"
        }
      ],
      "stateMutability": "view",
      "type": "function"
    },
    {
      "inputs": [],
      "name": "owner",
      "outputs": [
        {
          "internalType": "address",
          "name": "",
          "type": "address"
        }
      ],
      "stateMutability": "view",
      "type": "function"
    },
    {
      "inputs": [],
      "name": "withdrawEarnings",
      "outputs": [],
      "stateMutability": "nonpayable",
      "type": "function"
    }
  ],
  "bytecode": "0x608060405234801561001057600080fd5b506040516114093803806114098339818101604052810190610032919061011c565b336000806101000a81548173ffffffffffffffffffffffffffffffffffffffff021916908373ffffffffffffffffffffffffffffffffffffffff16021790555080600160006101000a81548173ffffffffffffffffffffffffffffffffffffffff021916908373ffffffffffffffffffffffffffffffffffffffff16021790555050610149565b600080fd5b600073ffffffffffffffffffffffffffffffffffffffff82169050919050565b60006100e9826100be565b9050919050565b6100f9816100de565b811461010457600080fd5b50565b600081519050610116816100f0565b92915050565b600060208284031215610132576101316100b9565b5b600061014084828501610107565b91505092915050565b6112b1806101586000396000f3fe6080604052600436106100865760003560e01c8063b73c6ce911610059578063b73c6ce91461015b578063ca209dce14610172578063de74e57b1461018e578063f2aa8218146101ce578063fc025fa31461020b57610086565b8063306ca5d61461008b578063543fd313146100b65780638da5cb5b146100f3578063a595d8fc1461011e575b600080fd5b34801561009757600080fd5b506100a0610234565b6040516100ad9190610a4c565b60405180910390f35b3480156100c257600080fd5b506100dd60048036038101906100d89190610ab9565b61025a565b6040516100ea9190610aff565b60405180910390f35b3480156100ff57600080fd5b50610108610272565b6040516101159190610b29565b60405180910390f35b34801561012a57600080fd5b5061014560048036038101906101409190610b70565b610296565b6040516101529190610c2d565b60405180910390f35b34801561016757600080fd5b506101706103ec565b005b61018c60048036038101906101879190610b70565b610502565b005b34801561019a57600080fd5b506101b560048036038101906101b09190610b70565b6106d7565b6040516101c59493929190610c6a565b60405180910390f35b3480156101da57600080fd5b506101f560048036038101906101f09190610b70565b610734565b6040516102029190610b29565b60405180910390f35b34801561021757600080fd5b50610232600480360381019061022d9190610caf565b610767565b005b600160009054906101000a900473ffffffffffffffffffffffffffffffffffffffff1681565b60046020528060005260406000206000915090505481565b60008054906101000a900473ffffffffffffffffffffffffffffffffffffffff1681565b60603373ffffffffffffffffffffffffffffffffffffffff166003600084815260200190815260200160002060009054906101000a900473ffffffffffffffffffffffffffffffffffffffff1673ffffffffffffffffffffffffffffffffffffffff1614610339576040517f08c379a000000000000000000000000000000000000000000000000000000000815260040161033090610d3b565b60405180910390fd5b6000600160009054906101000a900473ffffffffffffffffffffffffffffffffffffffff1673ffffffffffffffffffffffffffffffffffffffff1663f75d8ada846040518263ffffffff1660e01b81526004016103969190610aff565b600060405180830381865afa1580156103b3573d6000803e3d6000fd5b505050506040513d6000823e3d601f19601f820116820180604052508101906103dc9190610ed7565b5050509250505080915050919050565b6000600460003373ffffffffffffffffffffffffffffffffffffffff1673ffffffffffffffffffffffffffffffffffffffff16815260200190815260200160002054905060008111610473576040517f08c379a000000000000000000000000000000000000000000000000000000000815260040161046a90610fe8565b60405180910390fd5b6000600460003373ffffffffffffffffffffffffffffffffffffffff1673ffffffffffffffffffffffffffffffffffffffff168152602001908152602001600020819055503373ffffffffffffffffffffffffffffffffffffffff166108fc829081150290604051600060405180830381858888f193505050501580156104fe573d6000803e3d6000fd5b5050565b60006002600083815260200190815260200160002090508060030160009054906101000a900460ff161561056b576040517f08c379a000000000000000000000000000000000000000000000000000000000815260040161056290611054565b60405180910390fd5b806002015434146105b1576040517f08c379a00000000000000000000000000000000000000000000000000000000081526004016105a8906110c0565b60405180910390fd5b60018160030160006101000a81548160ff021916908315150217905550336003600084815260200190815260200160002060006101000a81548173ffffffffffffffffffffffffffffffffffffffff021916908373ffffffffffffffffffffffffffffffffffffffff16021790555034600460008360010160009054906101000a900473ffffffffffffffffffffffffffffffffffffffff1673ffffffffffffffffffffffffffffffffffffffff1673ffffffffffffffffffffffffffffffffffffffff1681526020019081526020016000206000828254610693919061110f565b925050819055507f492df9b9267b3a3ce5c292986f3b886f121fd4ce5835f98cdbcf36977fe62df882336040516106cb929190611143565b60405180910390a15050565b60026020528060005260406000206000915090508060000154908060010160009054906101000a900473ffffffffffffffffffffffffffffffffffffffff16908060020154908060030160009054906101000a900460ff16905084565b60036020528060005260406000206000915054906101000a900473ffffffffffffffffffffffffffffffffffffffff1681565b600080600160009054906101000a900473ffffffffffffffffffffffffffffffffffffffff1673ffffffffffffffffffffffffffffffffffffffff1663f75d8ada856040518263ffffffff1660e01b81526004016107c59190610aff565b600060405180830381865afa1580156107e2573d6000803e3d6000fd5b505050506040513d6000823e3d601f19601f8201168201806040525081019061080b9190610ed7565b955050505092505080610853576040517f08c379a000000000000000000000000000000000000000000000000000000000815260040161084a906111b8565b60405180910390fd5b3373ffffffffffffffffffffffffffffffffffffffff168273ffffffffffffffffffffffffffffffffffffffff16146108c1576040517f08c379a00000000000000000000000000000000000000000000000000000000081526004016108b890611224565b60405180910390fd5b60405180608001604052808581526020013373ffffffffffffffffffffffffffffffffffffffff16815260200184815260200160001515815250600260008681526020019081526020016000206000820151816000015560208201518160010160006101000a81548173ffffffffffffffffffffffffffffffffffffffff021916908373ffffffffffffffffffffffffffffffffffffffff1602179055506040820151816002015560608201518160030160006101000a81548160ff0219169083151502179055509050507fda6e3f4579b83369067bea5d00c3f6f4ea90ea71243054b08c3c0d93a5a1bae58433856040516109bf93929190611244565b60405180910390a150505050565b600073ffffffffffffffffffffffffffffffffffffffff82169050919050565b6000819050919050565b6000610a12610a0d610a08846109cd565b6109ed565b6109cd565b9050919050565b6000610a24826109f7565b9050919050565b6000610a3682610a19565b9050919050565b610a4681610a2b565b82525050565b6000602082019050610a616000830184610a3d565b92915050565b6000604051905090565b600080fd5b600080fd5b6000610a86826109cd565b9050919050565b610a9681610a7b565b8114610aa157600080fd5b50565b600081359050610ab381610a8d565b92915050565b600060208284031215610acf57610ace610a71565b5b6000610add84828501610aa4565b91505092915050565b6000819050919050565b610af981610ae6565b82525050565b6000602082019050610b146000830184610af0565b92915050565b610b2381610a7b565b82525050565b6000602082019050610b3e6000830184610b1a565b92915050565b610b4d81610ae6565b8114610b5857600080fd5b50565b600081359050610b6a81610b44565b92915050565b600060208284031215610b8657610b85610a71565b5b6000610b9484828501610b5b565b91505092915050565b600081519050919050565b600082825260208201905092915050565b60005b83811015610bd7578082015181840152602081019050610bbc565b60008484015250505050565b6000601f19601f8301169050919050565b6000610bff82610b9d565b610c098185610ba8565b9350610c19818560208601610bb9565b610c2281610be3565b840191505092915050565b60006020820190508181036000830152610c478184610bf4565b905092915050565b60008115159050919050565b610c6481610c4f565b82525050565b6000608082019050610c7f6000830187610af0565b610c8c6020830186610b1a565b610c996040830185610af0565b610ca66060830184610c5b565b95945050505050565b60008060408385031215610cc657610cc5610a71565b5b6000610cd485828601610b5b565b9250506020610ce585828601610b5b565b9150509250929050565b7f4e6f742070757263686173656400000000000000000000000000000000000000600082015250565b6000610d25600d83610ba8565b9150610d3082610cef565b602082019050919050565b60006020820190508181036000830152610d5481610d18565b9050919050565b600081519050610d6a81610b44565b92915050565b600081519050610d7f81610a8d565b92915050565b600080fd5b600080fd5b7f4e487b7100000000000000000000000000000000000000000000000000000000600052604160045260246000fd5b610dc782610be3565b810181811067ffffffffffffffff82111715610de657610de5610d8f565b5b80604052505050565b6000610df9610a67565b9050610e058282610dbe565b919050565b600067ffffffffffffffff821115610e2557610e24610d8f565b5b610e2e82610be3565b9050602081019050919050565b6000610e4e610e4984610e0a565b610def565b905082815260208101848484011115610e6a57610e69610d8a565b5b610e75848285610bb9565b509392505050565b600082601f830112610e9257610e91610d85565b5b8151610ea2848260208601610e3b565b91505092915050565b610eb481610c4f565b8114610ebf57600080fd5b50565b600081519050610ed181610eab565b92915050565b60008060008060008060c08789031215610ef457610ef3610a71565b5b6000610f0289828a01610d5b565b9650506020610f1389828a01610d70565b955050604087015167ffffffffffffffff811115610f3457610f33610a76565b5b610f4089828a01610e7d565b945050606087015167ffffffffffffffff811115610f6157610f60610a76565b5b610f6d89828a01610e7d565b9350506080610f7e89828a01610d5b565b92505060a0610f8f89828a01610ec2565b9150509295509295509295565b7f4e6f7468696e6720746f20776974686472617700000000000000000000000000600082015250565b6000610fd2601383610ba8565b9150610fdd82610f9c565b602082019050919050565b6000602082019050818103600083015261100181610fc5565b9050919050565b7f416c726561647920736f6c640000000000000000000000000000000000000000600082015250565b600061103e600c83610ba8565b915061104982611008565b602082019050919050565b6000602082019050818103600083015261106d81611031565b9050919050565b7f496e636f7272656374207061796d656e74000000000000000000000000000000600082015250565b60006110aa601183610ba8565b91506110b582611074565b602082019050919050565b600060208201905081810360008301526110d98161109d565b9050919050565b7f4e487b7100000000000000000000000000000000000000000000000000000000600052601160045260246000fd5b600061111a82610ae6565b915061112583610ae6565b925082820190508082111561113d5761113c6110e0565b5b92915050565b60006040820190506111586000830185610af0565b6111656020830184610b1a565b9392505050565b7f44617461206e6f7420617661696c61626c650000000000000000000000000000600082015250565b60006111a2601283610ba8565b91506111ad8261116c565b602082019050919050565b600060208201905081810360008301526111d181611195565b9050919050565b7f4f6e6c79207075626c69736865722063616e206c697374000000000000000000600082015250565b600061120e601783610ba8565b9150611219826111d8565b602082019050919050565b6000602082019050818103600083015261123d81611201565b9050919050565b60006060820190506112596000830186610af0565b6112666020830185610b1a565b6112736040830184610af0565b94935050505056fea264697066735822122066f24c2fa4d51a54a1f1dc52f40a70a3568f4fbad3ab219f34f841581fb2e7e864736f6c634300081c0033",
  "linkReferences": {},
  "deployedLinkReferences": {}
}